:020000041004E6
:1000000000600020571505105714051059140510ED
:10001000AA5555AA45554C420000000000000000BA
:100020000000000000000000000000005B1405104C
:100030000000000000000000771F04105D14051090
:10004000651405107B1F0410000000000000000074
:10005000810F0410632504106714051093320410F7
:100060000000000000000000000000000000000090
:1000700000000000F7340410A7350410BF35041049
:1000800000000000772604104B280410FF310410F4
:10009000573204106F320410A74204102342041098
:1000A0000000000000000000000000000000000050
:1000B0000000000000000000000000000000000040
:1000C00070B586B00121092000F07EFF802040003D
:1000D0000190012401AE34710025B571757101A83C
:1000E00000F0D6FFE0020190347101A800F0D0FFCB
:1000F000E12040020390032603A806714671C580E3
:1001000045720672847201F053F8002001F010F974
:10011000012001F041F868460421017046708470A6
:1001200001F02CF90121102001F0DBF806B070BDC0
:10013000F8B584B00121112000F046FF684601F0B7
:100140000FF8042400946D462C710126AE7100272F
:100150006F71684600F09CFF082000902C71684683
:1001600000F096FF00962C71684600F091FF022087
:100170000090062028716E71684600F089FF022009
:1001800000F0F7FF02A801F075F902A807700F212F
:1001900041708770C6703948039002A801F043F996
:1001A00001F099F901F08FF9FF2001F0ACF900207E
:1001B00001F0A1F9012001F067F905B0F0BDF2B539
:1001C00004001700022000F0D7FF002517E00120EF
:1001D00001F070F90028FAD06E00A05B01F060F920
:1001E000042001F067F90028FAD001F05CF90099C9
:1001F0008853102001F05EF90128FAD06D1CBD4231
:10020000E5DB022000F0B5FFF1BD7FB506000C0074
:100210000121012000F0D8FE1020029002A8052143
:10022000017100258571457100F032FF0121C02068
:10023000400100F0C9FE684601F0CBF96846057040
:100240001F21C1700121817041708680C4800C4CD7
:100250000021200001F0C5F9200001F06DF9694688
:10026000200001F071F901220821200001F0E0F9DD
:1002700001220021200001F0BEF97FBD40420F00A5
:100280000000D040E0B50121012000F09DFE80205B
:10029000C001009068460621017101218171002191
:1002A000417100F0F5FE07BDE0B50121012000F02D
:1002B0008BFE60200090684606210171012181714A
:1002C0000021417100F0E4FE402000F052FF2020A8
:1002D00000F04FFF07BDE0B520210091002100286C
:1002E00000D006206A46107191715171684600F085
:1002F000CFFE07BD81B00520694602E06846008850
:10030000401E0880684600880028F7D101B0704779
:1003100080B5202000F02DFFFFF7ECFF402000F01B
:1003200028FFFFF7E7FF202000F026FFFFF7E2FF9E
:10033000402000F021FFFFF7DDFF002002BD80B567
:10034000202000F019FFFFF7D5FF402000F011FF3B
:10035000FFF7D0FF202000F00CFFFFF7CBFF01BD1F
:1003600038B504000825402000F006FFFFF7C2FF63
:10037000200603D5202000F0FCFE02E0202000F043
:10038000FBFE6400FFF7B6FF402000F0F2FEFFF72F
:10039000B1FF6D1EE7D1402000F0EEFE00240020EA
:1003A000FFF799FF202000F0E4FEFFF7A3FF4020B5
:1003B00000F0DFFEFFF79EFF202000F0D7FE0028B0
:1003C0000AD028006D1C80B26528F3DB402000F0C5
:1003D000D3FEFFF7B4FF07E0202000F0C7FE00289F
:1003E00006D0402000F0C8FE0620FFF774FF06E0AC
:1003F000402000F0C1FE0620FFF76DFF0124200021
:1004000032BD70B504000020FFF765FF202000F02A
:10041000B0FE402000F0B0FE00250826402000F08D
:10042000A8FEFFF767FF6D00202000F09FFE002868
:1004300002D0280001250543402000F09DFEFFF773
:1004400059FF761EEAD1002C03D0202000F094FE44
:1004500002E0202000F08DFEFFF74CFF402000F06E
:1004600088FEFFF747FF402000F086FEFFF742FFBF
:100470000620FFF730FFE8B270BDF4B56A46127887
:10048000002A35D0032604000F001D003000461E50
:1004900000062FD0FFF73CFF0028F7D12000FFF720
:1004A0005FFF0028F2D03800FFF75AFFFFF747FF41
:1004B000FFF720FFFFF71EFFFFF71CFFFFF728FFE6
:1004C00001202043FFF74CFF00266846047805E032
:1004D0000120FFF796FF28706D1C761CF0B2611E9C
:1004E0008842F5DB0020FFF78CFF2870FFF727FF1D
:1004F0000020F2BD0120F2BDF4B56A461278002A50
:1005000021D0032607000C001D00FFF701FF002883
:10051000FBD13800FFF724FF002804D1761E3006F7
:10052000F3D10120F2BD2000FFF71AFF0026684634
:10053000047803E0285CFFF713FF761CF0B2A042BA
:10054000F8D3FFF7FCFE0020F2BD38B5040001F03F
:100550008EF8050001F08BF8401BA042FAD331BDA4
:1005600038B590B0002200236C4602E0C55CE5542B
:100570005B1C8B42FADB625439A1684601F082F8B9
:10058000002801D1012068E038A1684601F07AF81E
:10059000002801D1022060E037A1684601F072F81E
:1005A000002801D1032058E037A1684601F06AF81D
:1005B000002801D1042050E037A1684601F062F81C
:1005C000002801D1052048E036A1684601F05AF81C
:1005D000002801D1062040E036A1684601F052F81B
:1005E000002801D1072038E036A1684601F04AF81A
:1005F000002801D1082030E035A1684601F042F81A
:10060000002801D1092028E035A1684601F03AF818
:10061000002801D10A2020E034A1684601F032F818
:10062000002801D10B2018E033A1684601F02AF818
:10063000002801D10C2010E031A1684601F022F819
:10064000002801D10D2008E02FA1684601F01AF81A
:10065000002801D10E2000E0002011B030BD0000C4
:1006600067657453657269616C0000006765744D5D
:100670006F64656C00000000676574546F74616C92
:1006800054696D6500000000676574546F74616C97
:10069000566F6C756D6500006765744669726D779D
:1006A000617265007570646174654669726D776129
:1006B00072650000737072617944697361626C6580
:1006C000000000007370726179456E61626C6500B4
:1006D00067657450756D7053746174650000000037
:1006E00067657448565374617465000067657445A6
:1006F00072726F7200000000676574466C6F77005D
:10070000676574455356000067657442617474658B
:1007100072794C6576656C00F8B5C2B0A020000215
:1007200022A908800B2202A922A8FFF748FD274C26
:10073000FF20000402A94A88120402408B88D218C4
:1007400062600A89CB881B02150A5B19A360120438
:1007500002404B89D218E260CA898B891B02150AB4
:100760005B19236112041040098A4018606100255A
:100770000026B0002718786880210904884201D338
:100780007D6004E0A021490000F086FF7860761CBF
:10079000042EEEDD2078802812D100F068FF0100E1
:1007A0000DA000F0DDFF6069019020690090E36812
:1007B000A2686168064800F0D3FF06A000F0D0FFF1
:1007C0002078401C207043B0F0BD00008805002058
:1007D0006C0A05100D000000253038783A20000022
:1007E000F0B59DB0002007900024012006906946D6
:1007F0004C70002605940C94B6480AAF0178397005
:10080000417879708178B970C178F970017939715E
:10081000417979718179B971C079F87101F012F972
:1008200000F015FFFFF74CFCFFF782FCFFF73CFDE3
:10083000FFF728FDA849FA208000FFF7E6FC012118
:10084000A64800F0CEFE0D2000F055FD0A2000F075
:1008500052FDA34800F084FF0025795DA14800F017
:100860007FFF6D1C072DF8DD9FA000F079FF9F48EA
:1008700001F066F9002804D001009D4800F070FFE7
:10088000FEE79C499C4800F06BFF01F07BF9099062
:10089000002804D00146994800F062FFFEE798481E
:1008A00000F05EFF974800F05BFF00F00DFA00F0EB
:1008B0002CFA00F065FA00F0B5FA934800F050FF0A
:1008C000FFF72AFF9148476803E00C21904801F0A8
:1008D00079FA01F0E1FA01F021FA8E48056800F09A
:1008E00038FAF021814308910846694649788842E0
:1008F0002BD010281BD0202810D0402807D08028CB
:1009000018D10798002815D10126012412E0079874
:100910000121414007910799B84805E00698012157
:10092000414006910699B64800F01AFF02E0B5482A
:1009300000F016FF0898000601D40024012608984C
:10094000694648706420FFF700FE300041D0200067
:100950002CD0E120C000AC498F4200D36438AB49B1
:100960008F4201D3C820C000A9498F4200D3A948B3
:10097000A9498F4201D3AF20C000A849091A89B202
:10098000FFF743FC3220FFF7E0FD0121534800F060
:1009900028FE96204000FFF7D8FD0698C0B200F070
:1009A0008DFA012000F051FA012411E04A49FA20A1
:1009B0008000FFF72AFC3220FFF7C7FD01214748DE
:1009C00000F00FFE002000F079FA002000F03DFA60
:1009D0000026FFF7A1FE3802C01B4C4949684018A9
:1009E000070AFF20694608718748874201D3FE2025
:1009F00008718648874201D3FC20087184488742E9
:100A000001D3F82008718448874201D3F02008718F
:100A1000079800286846007906D04006400E40211D
:100A200001436846017105E0BF2101408020084371
:100A300069460871069800286846007903D0EF21BE
:100A40000140202002E0DF210140102008436946D8
:100A500008710598FF21F63188420EDB684600795F
:100A600020210143684601710807000F0F2804D1B7
:100A70000846FE2101406846017101AB01220221B6
:100A8000E820FFF739FD09A90870E80768460079F2
:100A900002D50121014301E0FE21014068460171B8
:100AA0000598B649884205DB684600790121014373
:100AB0006846017101AB01220321E820FFF71CFD0C
:100AC00009A908700598D449884225DB00200590C3
:100AD00027E000BFF4070010384A00000000D040B3
:100AE000080005101C0005100A0D000018FF041076
:100AF00060FE04102400051094FE0410CCFE0410C7
:100B00002C00051048000510640005108805002021
:100B1000AC00051064000020401C80B20028059045
:100B200010D100F012FA050000F0A1FD0C99421A54
:100B3000290000BF3AA000F013FE00F0DCF900F03D
:100B400096FD0C9069460DA801F057F9002839D0A0
:100B50000025B2A0089005E00DA8415D089800F0BE
:100B6000FFFD6D1C684600788542F5DBACA000F007
:100B7000F7FD684601780DA8FFF7F2FC010000BF01
:100B80002EA000F0EDFD684601780DA8FFF7E8FC07
:100B9000401E0C2816D802A14000095E8F4400BFF9
:100BA0002AFD1A00400040004000400020002600BE
:100BB0002C0040004000400048000A2125A086E6A5
:100BC0000126002485E60124012682E6200003D0C8
:100BD000112100BF22A07AE6122100BF25A076E6EF
:100BE000122100BF29A072E60698002802D00E212B
:100BF0002BA06CE60F2100BF2EA068E67C0005103C
:100C000098000510F4FE04107D2E00002D33000026
:100C1000DD370000DC0500008D3C0000204E0000A8
:100C20000A0D466C6F7720436F756E743A253564F4
:100C3000402534646D732E0A0D0000005265636513
:100C40006976656420436F6D6D616E64203A25643A
:100C50002E0A0D0056323032302D5345500D000013
:100C600057617465722050756D70206973206F6EC6
:100C70002E0A0D0057617465722050756D702069E1
:100C800073206F66662E0A0D00000000556E6465C5
:100C90007220446576656C6F706D656E740D000032
:100CA00045535620697320656E61626C652E0A0D8E
:100CB0000000000045535620697320646973616227
:100CC0006C652E0A0D0000001CB56C46FF202070DC
:100CD0006B4601220621EE20FFF70EFC0F2020704C
:100CE0006B4601220721EE20FFF706FC0020208042
:100CF0006B4602220221EE20FFF7FEFB6B4602222A
:100D00000321EE20FFF7F8FB16BD38B500206C4636
:100D100020806B4601220621E820FFF7EDFBF02042
:100D200020706B4601220721E820FFF7E5FBFF2535
:100D3000257065706B4601220221E820FFF7DCFB7D
:100D4000257065706B4601220221E820FFF7D4FB75
:100D500032BD80B56B4601220121E820FFF78DFBF3
:100D600069460978F0220A4069460A70012803D1D1
:100D7000904800F0F5FCFEE7104602BD210300009C
:100D8000DFB58D49FA20C000FFF73FFA01218B48FB
:100D900000F027FC8020694608706B460122032181
:100DA000EE20FFF7A9FB002407272000384001218F
:100DB0008140C843694608706B4601220221E82041
:100DC000FFF79AFBC820FFF7C0FB641C082CECDB84
:100DD0007B49FA208000FFF718FA6420FFF7B5FB83
:100DE0000121764800F0FDFB00242000384001215D
:100DF0008140C843694608706B4601220221E82001
:100E0000FFF77AFB0600C820FFF79FFB641C082C45
:100E1000EBDB300004B0D0BDE90300002563000027
:100E20000A0D000010B588B004AC0E21A01C01F022
:100E300087F8112020800822694604A8FFF7BFF92F
:100E40000A20FFF782FB08B010BD38B504006B46DE
:100E500001220321EE20FFF710FB684600784021B5
:100E60000143684601706B4601220321EE20FFF723
:100E700043FB0120FFF769FB8025ED01012C03D125
:100E8000280000F076F902E0280000F075F90A2049
:100E9000FFF75BFB68460078BF21014068460170A0
:100EA0006B4601220321EE20FFF726FB04002800F9
:100EB00000F062F9012C00D1FEE731BD1CB5040041
:100EC0006B4601220321EE20FFF7D7FA012C68467A
:100ED000007802D12021014301E0DF210140684672
:100EE00001706B4601220321EE20FFF705FB01286C
:100EF00000D1FEE713BD1CB56B4601220321EE2095
:100F0000FFF7BBFA6846007810210143684601707C
:100F10006B4601220321EE20FFF7EEFA0A20FFF7CD
:100F200014FB68460078EF210140684601706B466B
:100F300001220321EE20FFF7DFFA04000A20FFF769
:100F400004FB012C00D1FEE713BD1CB56B4601224A
:100F50000021EE20FFF791FA684604786B460122E3
:100F60000121EE20FFF789FA012800D1FEE768464B
:100F700000780002F02109010140601880B216BD1E
:100F800010B5102000F0C8F9002811D0102000F092
:100F9000CCF900200B4C414261188A7BCA73401C7B
:100FA0000F28F8DD00F0ACF92070207800F0A3F9EC
:100FB00010BD0000A40E0510504600000000D040F7
:100FC000384A00001C0000202D4A0129116802D176
:100FD00008431060704781431160704729480078CA
:100FE00029490988002821D10A00093A792A21D201
:100FF00009220A40092A01D10620704711220A401D
:10100000112A01D10720704721220A40212A01D14B
:101010000820704741220A40412A01D10920704727
:1010200081220A40812A05D10A20704702281CD15A
:1010300001207047FF22921C13000B40934201D104
:101040000B207047114A13000B40934201D10C2032
:10105000704705220A40052A01D1052070478907FB
:10106000890F032901D104207047042801D10220EF
:101070007047082801D10320704700207047000006
:101080002000904008009040080010480104000033
:10109000F0B50479220000213C4B002C04D11C68DF
:1010A0000568AC431C6006E0062C04D100221C68D5
:1010B000056825431D600568CD40ED0738D5082932
:1010C00009DA8D009E6A0F27AF40BE431700AF407C
:1010D00037439F622CE00D00083D082D0BD20D0018
:1010E000083DAD00DE6A0F27AF40BE431700AF409A
:1010F0003743DF621CE00D00103D082D0BD20D00C0
:10110000103DAD001E6B0F27AF40BE431700AF4030
:1011100037431F630CE018290ADB0D00183DAD00B2
:101120009E8E0F27AF40BE431700AF4037439F86C8
:10113000491C1A29BFDB01684279012A9A6802D149
:101140001143996001E08A439A600168807901281F
:10115000586802D101435960F0BD88435860F0BD22
:101160000021016001718171417170478021C905C1
:1011700005E007490860704706490860704709683C
:10118000084000D00120C0B27047000004000040B9
:101190003C000040400000406B490028086803D034
:1011A000012202430A6070470122904308607047A1
:1011B000F0B5040021680125644E65487269D208C3
:1011C0002A4001D1090100E0C90000F065FAC10917
:1011D00031810904490A401A401C400881B23F2964
:1011E00002DD3F388006800E307360209F21327C04
:1011F0000A4023795B010340134333743278114072
:10120000627952011040084330700821F720327C87
:101210000240A379DB0008271F4017433774327858
:101220001040A279D200114001433170E1790029C8
:1012300007D1FD20317C0140317431780840307095
:101240001CE002200229317C0BD101433174FB21C7
:10125000327C0A403274327810433070307801406A
:101260000BE0014331740421327C042313433374B3
:1012700032781043307030780143317070693549ED
:101280000140207A28404002084370617069324969
:101290000140207A400828400002084370617069CC
:1012A0002E490140607A28408003084370617069CC
:1012B0002B490140607A40080540E803084370610B
:1012C0001020EF21327C0A40A37A1B010340134314
:1012D000337432781140A27A120110400843307002
:1012E000F0BD204A0029118802D0084310807047C1
:1012F000814311807047C005C00D1B4908807047AD
:1013000019480088C0B2704701001848002901D56B
:10131000006800E0808A02E0010015480088014072
:10132000080000D00120C0B2704712490880704701
:1013300011490A78C7231340C0003822FFE7024052
:101340001A430A7070470000300030401C003040E3
:101350000000127AFFFDFFFFFFFEFFFFFFBFFFFF50
:10136000FF7FFFFF38003040000030400400304075
:101370003C0030404400304034003040F0B502784A
:101380001F2301248178002921D0417852B2D50051
:1013900018262E40FF27B740FD438907090EB140AC
:1013A000160004D50D4A3607360F083E00E00C4AF9
:1013B000B608B600921916683540294311600078C6
:1013C00003409C400749400980000C50F0BD134089
:1013D0009C400548510989004450F0BD1CED00E0D7
:1013E00000E400E000E100E080E100E030B5010051
:1013F000012502244548490000F04EF9002808D094
:101400004349884205D201E064004008FF28FBD828
:10141000451E4048047401683F4A0A402D06290CC5
:101420001143016030BD10B504006068FFF7DEFFB6
:1014300021783848426804239A43890019401143AF
:101440004160A178026840239A4389011940114301
:101450000160E178026880239A43C9011940114371
:101460000160617802681F239A43C906C90E1143BF
:10147000016010BD012101700721417000218170C0
:10148000C17026494160704725490028086803D08B
:10149000022202430A6070470222904308607047AC
:1014A0002049086070471F480068704702401A438F
:1014B0000A60704701001C48FFE7007801400800FF
:1014C00000D001207047174800E0016801798908C1
:1014D000C907FAD470471548017802220A430270FE
:1014E00000E0C16810490978C907FAD50178FD22E2
:1014F0000A400270704707490A680D4B1340C00547
:10150000C0225204D2E70B49086070470024F4005F
:1015100001FE000000004040FF00FFFF40420F00BE
:1015200004004040080040400C0040408000404023
:10153000FFFF7FFE2C0040400021017401750183F4
:101540000F2120228154704770B5028B334B13401A
:101550000383028B324B13400383F822037D134035
:101560000375C723047D1C4004750D782D4C802D18
:1015700007D1058B2C400483048B80256D00254307
:1015800008E0068B3440AD07AD0F25430583048B7F
:10159000254D25400583CC780474048B8025254394
:1015A00005838C888480CC880481048B1F4D254062
:1015B0000583047D22404C786407640F144304754E
:1015C000027D13408978C90038220A401A43027507
:1015D00070BD0021417081708180C1800170C17037
:1015E00070470129018B02D180220A4301E00F4A92
:1015F0000A40028370470B0005D1018B074B0B405B
:101600001101102206E0012907D1018B044B0B4088
:10161000510120221140194301837047EFFF000060
:10162000DFFF0000FCFF0000FFFE00007FFF000066
:101630000901012A027F02D11143017770478A43D1
:10164000027770470B480168491C016070470A48DF
:101650000A4941600A490A681202120AC0231B069D
:1016600013430B600021816007210160704701482E
:1016700000687047A405002010E000E0FE7C000038
:1016800020ED00E002780B78002A03D0401C491CB2
:101690009A42F7D0D01A70470022030A8B420BD22D
:1016A00003098B4219D243088B422ED2411A00D231
:1016B0000146524110467047FF2209023FD01206F0
:1016C0008B4205D3121209028B4201D31212090276
:1016D00003098B4219D300E0090AC3098B4201D3E5
:1016E000CB01C01A524183098B4201D38B01C01A2E
:1016F000524143098B4201D34B01C01A52410309A5
:101700008B4201D30B01C01A5241C3088B4201D353
:10171000CB00C01A524183088B4201D38B00C01A00
:10172000524143088B4201D34B00C01A52418842B8
:1017300000D3401A5241CFD201461046704708B537
:1017400000F01AFC08BD0C0802170D01010209097E
:101750000101060209FFFFFFFFFF0909FFFFFFFF6D
:101760000EB4C0B5020003A801900020009001ABA8
:101770000121044878440C3000F000FC029906B0C6
:10178000084700BFEBFC000010B5C200182313404F
:10179000FF249C40E2438907090E9940030004D5C9
:1017A00059481B071B0F083B00E0A0489B089B0003
:1017B000C01803681A401143016010BDFEB5012432
:1017C0005248017801220A43027000265048066000
:1017D0000325FFF703FC6946087068460078002877
:1017E00001D16D1EF5D16846007806282FDB6846CA
:1017F000007801250B2825D0684600F07FFE68465A
:101800004178090180780843122800DA00258848C9
:101810000068000705D4002D14D0012000F05BF80B
:1018200010E0844FF868844E3168081A28380002A6
:101830000012002806DD002D02D0012000F04BF838
:10184000306838607D48047000F0B5FEFEE7012086
:10185000FEBD10B500220021A64804E00B00415C4B
:101860005918491CC9B2435C002BF7D1CB1C202B63
:1018700012DA022343542123441863700823A3700F
:101880004318DA709C4A80235B02401880B21843E8
:10189000106010681840FCD110BD70B50021002305
:1018A000944A04E01C00D35CE3185B1CDBB2D45CFC
:1018B000002CF7D102253524DE1C202E05DAD55464
:1018C000D6187470B070D218D1708C4A15705470DC
:1018D0009070D17070BD70B580214902874B9CB269
:1018E0000C43854A002804D01460106808400AD0D0
:1018F000FBE798789D78FB262E409E701460146854
:101900000C40FCD1987070BD1CED00E00800204038
:1019100014000020F3B58BB003A800BF81A11C22E6
:1019200000F06EFE684600F0E9FD734C01250BA83F
:101930000078002858D003A84421817370490A78A0
:10194000012313430B704C21C17220210172B2217B
:1019500041745B2101756B498B6B6B4A1E0C96427F
:1019600009D1C67D8F273740C775C67D1B017027FB
:101970001F403743C7754B6B1E0C964209D1467901
:10198000CF273740477146791B0130271F40374327
:10199000477109680B0C934208D1C27DFC231340A8
:1019A000C375C27D8907890F1143C175C17AFB22B6
:1019B0000A40C27269464A7812018E781643112E87
:1019C00006DDC17D04220A43C275C07DFFF765FFB5
:1019D000280403A989B20143216021680140FCD198
:1019E000112E01DDFFF735FF154988890028FBD04E
:1019F0000CA800788D8117220A8000224A600028F6
:101A000007D06068102162680A40102303409A42A0
:101A1000F9D00BA80078002802D015203B490870A7
:101A20003B483C4908600DB0F0BD000000E400E018
:101A3000C000002004000048180000200C00002016
:101A40000C00104880B5082033490880032101208C
:101A5000C043FFF799FE03210020C043FFF794FE27
:101A600003210020FFF790FE03210120FFF78CFEE9
:101A700003210420FFF788FE03210520FFF784FEE1
:101A800000210620FFF780FE03210720FFF77CFEE0
:101A900003210D20FFF778FE03210E20FFF774FECF
:101AA00003210F20FFF770FE03211120FFF76CFECA
:101AB00003211220FFF768FE03211320FFF764FEC5
:101AC00003211420FFF760FE03211520FFF75CFEC1
:101AD00003211620FFF758FE03211720FFF754FEBD
:101AE00001210120FFF716FF0C480D49086062B67E
:101AF00001BD0000680500200C000048B400002073
:101B000008002040B007001055AA00000000C040A7
:101B1000CCBCECFC140000200400104066000E0059
:101B200020009040023F00023E30023C20023B6C0D
:101B3000023A440239B202341B02350B021C530034
:101B400010B5837F0122002492024168082B03D93B
:101B50004224914202D310E0914201D242240CE08F
:101B600001463422064800F072FD00F085FD002891
:101B700001DA482401E000F0BFFD204610BD00005E
:101B80000C05002038B58AB008A800BFB2A10CC966
:101B90000CC006A8B2A10CC90CC006AA06210020E0
:101BA00000F01EFE05009F4C02D02900200046E0F8
:101BB0000721012000F018FE00F01AFE050003D0F6
:101BC0002900200024303AE020004830FFF7C8FD0B
:101BD00005A8019004A8009004AB9B1C08220021DA
:101BE000012000F009FE050003D029002000783014
:101BF00025E020009C30FFF7B3FD08A803900820E3
:101C00000290002001900820009001236846028A7B
:101C1000418A002000F008FE050003D029002000C2
:101C2000CC300CE0802040002018FFF799FD00F038
:101C30000DFE050007D02900982040002018FFF76E
:101C40008FFD280005E0AA2040002018FFF788FD3E
:101C500000200BB030BD7FB5734DA868400603D59A
:101C60002026A868304003D07FBDA8880019A8802E
:101C70006888A98881421AD2441A152C00DB1424E2
:101C80006A4840180390E0B2029000200190A0B290
:101C9000009001236648028866480188288800F081
:101CA000C3FD6428E1D1A8680643AE607FBDA86883
:101CB00040218843A8600020688010205E490860A9
:101CC0007FBD000000B58BB007A800BF66A1102241
:101CD00000F096FC0021002000F044FEFA22920061
:101CE00006926420059000200490039007A80290BB
:101CF0000F200190002000900023642100F03DFEA1
:101D00004E4A002804D001001000FFF729FD03E02F
:101D100010003030FFF724FD0BB000BD10B5424C71
:101D2000A068800705D5FFF7CDFFA0680221884392
:101D3000A060FFF790FF10BD3B4801808168012241
:101D40000A4382607047384881680122914381606C
:101D5000816802220A438260816804229143816083
:101D600081682022914381608168354A0A408260FF
:101D70008168344A0A4082608168334A0A4082603E
:101D80008168324A0A408260704738B508001C00FA
:101D9000049D2A00210000F0B5FD402C09DA002145
:101DA0002B4A02E06B5C5354491CA142FADB2948E0
:101DB000047031BD1C4881682022914381607047C6
:101DC0007047704770B5184A9368DB0710D5002339
:101DD0000024164D02E0065D2E55641C8C42FADB91
:101DE000518093809068402101439160002070BD34
:101DF00021A0FFF7B5FC012070BDF8B5154A137896
:101E00006C462370002B09D000240026104DAF5DD6
:101E10008755761C9E42FADB0B701470684600787A
:101E2000F2BD0000A8F704105C000020CC020020E6
:101E3000420500204005002000E100E02C060510CE
:101E4000FFFEFFFFFFFDFFFFFFFBFFFFFFF7FFFFB1
:101E5000CC040020B8050020426C75654E52473016
:101E6000AA0000E1800000000947686F73744275A2
:101E7000737465725F56310053656E6420457272EB
:101E80006F723A20424C45206E6F7420436F6E6E25
:101E90006563746564210D0010B500F08FFD1E4C64
:101EA0004721206849014118097B002909D1A03048
:101EB0000079C00729D000F00FFE00F045FE00F0C9
:101EC00051FE00F0D5FE2068014640310A78C979FC
:101ED0008A4319D13E21095C002915D10F490A888E
:101EE000120711D50922D2061269497A836AC900FC
:101EF000591809231B02C018806D801A00020012B5
:101F0000814201DA00F016FF10BD00F0BFFF00F0C3
:101F1000DDFF01F0A9F8D0E7B0000020C0000020EC
:101F20001206130A1A43130C1A4300BF094205D0C4
:101F3000830709D00270401C491EF9D17047000088
:101F40000022F3E70022FFE71300103906D330B474
:101F50001400150010393CC0FCD230BC490700D336
:101F60000CC000D504C0890002D30280801C002967
:101F700000D502707047704770477047F8B596B04B
:101F8000050017001E001C98049103A92B228854F9
:101F900000200A9002950E9700960EE0252912D097
:101FA0000498029A90470490002800D1D2E00A9841
:101FB000401C0A900E98401C0E900E980178002943
:101FC000ECD10A98C8E000200790089009900226FA
:101FD00008210191012404210E9D00E020436D1C85
:101FE0002A78202AFAD0232A0AD02B2A04D02D2A94
:101FF00004D0302A08D00AE03043F0E70843EEE787
:10200000020008201043EAE702001020FAE72A2A1B
:102010000ED1009A17683A683F1D009B1F600C9212
:10202000002A03D553420C93014308006D1C14E0B1
:1020300000210C91004A0BE0CBCCCC0C0C9B9342C2
:1020400005DA9F00FB185B00591830390C916D1CA4
:1020500029780B00303B0A2BF0D329782E2903D0A6
:102060000021C9430B9127E06D1C29782A2908D14A
:10207000009909680A68091D009B19600B926D1C84
:102080001AE02D2902D12D236D1C00E00023002130
:102090000B910CE0002B09D10B9ABC4FBA4205DA28
:1020A0009700BA185200511830390B916D1C2978DD
:1020B0000A00303A0A2AEDD303A908852F7839009F
:1020C000B3A001F093F8002801D038006D1C03AFD5
:1020D0002A217854785C682805D12878682802D1AC
:1020E000622078546D1C10A806902A78681C0E9007
:1020F000252A15D0582A52D0632A00D1BCE0642A80
:1021000000D17FE0692A00D17CE06F2A47D0702A95
:102110003AD0732A08D0752A41D0782A3FD0B5E04A
:10212000079410A90A70BAE0009800680468001DBE
:10213000009908600594002C13D12B20385C0028EE
:102140000CD00024E44300BF93A001F059F8201AFA
:1021500000D1A4E00020C04317B0F0BD95A00590C9
:102160009DE00B9D002D03D5200001F06DF809E0E6
:102170002A000021200001F06FF8002801D0001B88
:1021800000E0280008908AE0009800680168001DBF
:10219000009A1060039110A80590782168E0785C9F
:1021A000622803D0682809D06C280FE000980168E5
:1021B0000868091D009B1960C0B20DE00098016815
:1021C0000868091D009B196080B205E0009801684D
:1021D0000868091D009B19600390388D0199C0B2F1
:1021E000084240D0039800283DD020201043782892
:1021F00039D1079810A930230B54401C431C079376
:102200000A5430E0785C622803D0682809D06C2832
:102210000FE0009801680868091D009B196040B232
:102220000DE0009801680868091D009B196000B264
:1022300005E0009801680868091D009B196003907B
:10224000002802D507982D2109E0388D304202D0B0
:1022500007982B2103E0C00705D50798202110AB74
:102260001954401C079010A80799401805901100B8
:1022700003A800F0A0F812E0079400980068016835
:10228000001D009A106010A8017008E00794252036
:1022900010A90870100002D0079610A842700C9880
:1022A0000799401A0999401A0899401A0F90282056
:1022B000385C400713D42020694608710F98002825
:1022C0000DDD0F9C029D012301AA03A9280000F047
:1022D000FAF8002800D03DE7641EF4D10295079D6E
:1022E00010AC002D0ED0029E227803A9300000F021
:1022F000D9F8002802D4641C6D1EF5D1029600287E
:1023000000D027E7302069460871099C002C0CDDBD
:10231000029D012301AA03A9280000F0D4F8002897
:1023200000D017E7641EF4D10295059C089D002D8E
:102330000ED0029E227803A9300000F0B3F80028E6
:1023400002D4641C6D1EF5D10296002800D001E76E
:102350002820385C400700D42FE620206946087109
:102360000F98002800DC28E60F9C029D0E9F009E1F
:10237000012301AA03A9280000F0A5F8002800D035
:10238000E8E6641E00D105E6F2E70000CBCCCC0CF9
:10239000686C747A4C0000007072696E74665F73CA
:1023A0003A2062616420257320617267756D656EE5
:1023B000740000000000F0B583B00A00C4686F2903
:1023C00001D1082506E020211143782901D00A25F2
:1023D00000E01025182701680E00642A01D0692A40
:1023E00003D1002901D571420E00002E0CD1016AE3
:1023F000002909D1082D31D12821415C09072DD5AB
:1024000017273021E17529E00290684602707F1E8F
:10241000019730002900FFF73FF93031C8B23A2860
:1024200003DB6846007851380918E155300029006F
:10243000FFF732F9060004D002988068E11988425B
:10244000E5D30298082D09D12821415C090705D55B
:10245000E15D302902D07F1E3021E1551821C91BD2
:102460004161E2198260026A914206DA511A816181
:10247000018D0B4A0A40028510E0002A0ED5282261
:10248000825C14231340102B08D1426A0369D21ACC
:102490008369D21A511A012900DB816103B0F0BDB2
:1024A000EFFF000010B503000C00110060689847B2
:1024B0006060002804D0E069401CE061002010BD8D
:1024C0000020C04310BDF8B50024002B11D0070038
:1024D0000E0014001D0021787068B8477060002855
:1024E00009D0F069401CF0610020641C6D1EF2D11F
:1024F00004002000F2BD0020C043F9E70F210E4A7E
:1025000013681B090B404370136819408170D2682F
:1025100042600121094B9A4201D1022200E00122CE
:1025200002704278002A00D1417005490988491C8F
:1025300089008160704700001C00904041A00002AB
:10254000140010407FB504000D0016006846FFF728
:10255000D5FF684601782170417829708078307005
:102560007FBD7047EFF31482EFF30981002080F301
:102570001488BFF36F8FF0B543464C4655465E4610
:102580006746F8B4164CEFF30883236006B4154C85
:102590002068154C2060154C2068154C2060154CA7
:1025A0002068154C2060154C276800202060BFF380
:1025B0004F8F30BF27600A4C246884F3088882B0AC
:1025C00003BCF8BC9846A146AA46B346BC46F0BC3C
:1025D00004BC80F3098881F31488BFF36F8F104720
:1025E0000800002004ED00E0A805002024ED00E034
:1025F000AC05002000E200E0B0050020080020400B
:1026000070B4103A03D378C9103A78C0FBD253079C
:1026100001D318C918C001D508C908C0D20704D30E
:102620000B880380891C801C002A01D50B7803705D
:1026300070BC70478B0701D18307E1D0124205D0EF
:102640000B78491C0370401C521EF9D1704710B51D
:102650000400FFF7EFFF200010BD10B504000800D4
:10266000110002002000FFF75BFC200010BD80B5C8
:1026700000F0FEFD02BD704770B50025ED4300F08F
:1026800006FE01282ED0002318490322888BFF2440
:10269000401E10438A7F4D3462438218088B2824E1
:1026A00060431218488B30246043121808462030CB
:1026B00040782C24604310180D4A18188418486973
:1026C000A0420DD10B4884420AD90D6900F0DFFD0C
:1026D000C1B2284600F0DEFD00F00CFF401B251AB9
:1026E000284670BDFF23B533CEE700000C0500205F
:1026F00039190000580A0000F8B50626324840256E
:102700000560324800270780A9050920C0064160FE
:102710002F4A9160016801602E48032104694269D3
:10272000601E08433946401CFFF797FF00F0AFFDDD
:10273000C1B2204600F0AEFD00F0DCFE00F0DCFE91
:1027400000F02CFF244917208881244C206842196E
:1027500001465770FA2088622820107000F01FFF91
:10276000012805D120681022403001781143017002
:1027700000F017FF012805D1206880224030017841
:1027800011430170206801464030027832430270E4
:102790000020C043086600F007FF00F011FF00F0C2
:1027A00041FF206801212030017707214177012076
:1027B00000F07AFF00F09AFF00F05AFA02488038E1
:1027C000056002210160F8BD80E100E0C00000204A
:1027D000400000480C05002000001048B000002018
:1027E00010B500F0DDFF10BD10B500F05DFF10BDAD
:1027F00010B501F063F810BD7CB5069D079C00285C
:1028000005D0860705D1460703D4060701D4422028
:102810007CBD002903D0012901D00229F7D1009500
:10282000019401F013F97CBDF0B585B084460AA887
:10283000F0C868468581C68103A80190029700947C
:10284000604601F001FA05B0F0BD704738B586B0BA
:10285000354C102237A120000830FFF7F8FE334D29
:1028600000940623012221000831022001F0B2FB6E
:10287000002840D1102200BF32A120001830FFF7FD
:10288000E6FEA01C0590012004901020039000207B
:10289000029001901020009014232200183202218F
:1028A000208801F0B2FB002825D1102229A12000A8
:1028B0001830FFF7CCFE201D059001200490102059
:1028C000039001200290002001900C20009014231E
:1028D000220018320221208801F097FB00280AD13B
:1028E00061882800FEF73CFFA18828003C30FEF7F5
:1028F00037FF002004E028007830FEF731FF472042
:1029000007B030BD08498B885B1C98420BD04988C2
:10291000891C884207D11078012804D10448016835
:1029200004220A4302607047400500209802051007
:1029300064000020669A0C200008969EE2119EB169
:10294000E0F273D9669A0C200008969EE2119EB1BF
:10295000E1F273D9669A0C200008969EE2119EB1AE
:10296000E2F273D910B50A461F2801D9122010BD12
:102970000146104601F068FB10BDFFB587B0109D01
:10298000159E169C01930295009407A807C81F4640
:10299000334601F087FB00280ED11398149903AA3F
:1029A000069443C21198129901900095029107A8CC
:1029B00007C83B4601F0A4FB0BB0F0BDF0B5002604
:1029C00093B0701E0E904148414900683746441844
:1029D0000920C006006905022D0A72B6A0692146C9
:1029E000281A0002000A223101F0A6FB6169A561E4
:1029F00040186061354800684030C1798A0663D468
:102A000020221143C17162B6256814E0A86861698B
:102A1000401A00280ADCBA0001A8761C85507F1CE9
:102A2000F6B2FFB2287B01F09FFB03E00E998842CB
:102A300000D20E902D68A542E8D12046083000252E
:102A40000C901830129018E0AF0001A8761EC15902
:102A5000F6B2204601F0C6FB01A8C1590C9801F05E
:102A6000D1FB01A8C059007B3A2804D212981299D0
:102A70000078401E08706D1CEDB2002EE4D1206875
:102A8000A04217D03D256D04284601F0C2FB014647
:102A90000E98814201D8284601E001F0C3FBA169EC
:102AA000081800020121000A0906401801F0CAFBBB
:102AB00013B0F0BD72B60020044907220968120263
:102AC000891808610349886062B6F1E7B000002008
:102AD000F40600004000004870B572B6184D40235F
:102AE000286801464030C2791A43C27162B6154E59
:102AF000881901F0CFFB002812D12868801901F055
:102B0000D0FB04460AE0204601F0CEFB002807D1A6
:102B100028682146801901F0F7FB2468002CF2D1C7
:102B20002868801901F0B6FB012807D072B6286822
:102B3000BF224030C1791140C17162B670BD000042
:102B4000B0000020E406000010B501F0FFFB01F02A
:102B5000FFFB00F09CFB012801D101F0FAFB01F022
:102B6000F9FB10BDFEB572B63F4D0823286801463B
:102B70004030C2791A43C27162B6002011276C46F8
:102B8000FF0182005218D219D26F52884300401CB4
:102B9000C0B2E2520328F4D372B6C8190021866E7F
:102BA000816662B6F00702D0002001F0F7FBB007A3
:102BB00002D5012001F0F2FB700702D5022001F0DE
:102BC000EDFB300702D5032001F0E8FB002623E0EF
:102BD0000D281AD2211D254A800012582046904700
:102BE000002812D072B62868F7224030C17911400F
:102BF000C17162B630E03A2807D21C49231D80001B
:102C0000E8390A5819462046904702982968401822
:102C1000C019C06F2188018071006846415AB00018
:102C200002902A688018C019C06F0288920892002A
:102C30001418028808348A420ED0A27891070BD06B
:102C40009107890F012901D104460834A078800832
:102C5000C006E078CFD5BBE7761CF6B2032EDBD3F7
:102C600001F09EFBFEBD0000B0000020ECFB041054
:102C7000F8B52C4F3C68206E5C34401C002814D002
:102C8000002529480023C07B00283ED00926F606EF
:102C90002648002D1CD000210A460B464169521CD3
:102CA000994204D1002902D004E00125E9E7204B34
:102CB0009A42F2D32160006960603069A168000225
:102CC000090E000A09060143A16001F083FB1DE023
:102CD0003169A2680902090A150E08D0018BC907DB
:102CE00012D04169216000696060E37210E0881AC7
:102CF00000027D2300121B03984205DD100E000622
:102D00000843A06001F066FBF8BD6360002DFBD0B6
:102D100003CC01F06DFBFA2001F084FA3968886277
:102D2000F8BD0000B00000202C0500200000104875
:102D300088130000FEB552480088582341075148C7
:102D4000490F02680520400210184269594354187F
:102D5000A27825695207520F216A0092022A01D0F7
:102D6000052A20D12A0404D46279920701D10029CE
:102D700019D0A66A444A2B0443D563799B0715D022
:102D8000676B77800120C0038543256100F07FFADF
:102D9000012809D01F217878014204D0218A8904B2
:102DA00001D5001D7870FEBDFF21F4E70029FAD09F
:102DB0001542F8D10A7C006AD206D20E921C17186E
:102DC000B8B201907080204601F056FB0120C0038C
:102DD0008543256105110098052800D1AD0000F05C
:102DE00056FA01280BD01F217878014204D02169BE
:102DF000294201D0001D787001987080FEBDFF212E
:102E0000F2E7708801235B07C01863799C469B0733
:102E100004D0636B834201D0012700E00027666B7A
:102E2000864202D02388834212D1002912D0154253
:102E30000ED1012300290ED086420CD02488844272
:102E400009D00968002906D0154204D1012103E008
:102E50000023EFE70023002162469206920F03D081
:102E60000022002F06D101E00122FAE70B43C5D072
:102E7000002AC3D00178102211430170FEBD00006A
:102E8000C0000020B0000020600600001FB50E4802
:102E90000468AE34E078010612D5A178C9070CD0D9
:102EA000800708D5042069460873684601F026FBB0
:102EB000022001F04FFB0020E0704006400EE07061
:102EC00001F070FB1FBD0000B0000020F0B58BB01A
:102ED000002064490290E3200A68C000141872B60A
:102EE00010464030C57902231D43C57162B62546A0
:102EF0004035287AC0077DD00520400210180026F2
:102F000087694AE071017A5A002A44D0C9190691AA
:102F100009694A021FD48A0227D502210491069921
:102F2000012309880905090D03911B218901411815
:102F3000C97E89070FD51121C90108304018232205
:102F4000C06F022101F030FB010004D0039A8A8097
:102F5000049801F087FB069800880090069801F01D
:102F600095FB009801F010FC15E0480713D5069872
:102F700000880005000D01F015FC002805D1069819
:102F800000880005000D01F031FC06990420096954
:102F9000814306980161761CF6B23248AC21006884
:102FA000095CB142AED801F0C5FD2046243006468A
:102FB00001F070F9012802D0012001F085FE2046C1
:102FC000183001F067F9012802D0002001F07CFEE2
:102FD0003C34204601F05EF901280FD002A92046BA
:102FE00001F070FF0420029901F083FF0028F0D067
:102FF000204600E034E0029901F0A1FF287A0006A3
:103000002ED5304601F046F9012829D1002001F0E3
:10301000A9FFA98B23314909491CC9B2FEF73CFB22
:1030200000281DD00F4D044628681121C901083021
:103030004018422601233822C06F314601F0B4FA0D
:1030400001000DD000228A80CC80304601F00AFBBE
:103050003B212A68490151180A78802082430A706E
:103060000BB0F0BDB0000020F0B595B0002706977A
:1030700072B65C4E042230684030C1791143C17190
:1030800062B601F08DFF00256BE00F21C9014018E9
:10309000C16B2846782250430C1860D0218A002941
:1030A0005DD0204660301190C07BC00651D5080528
:1030B000000D21461E310090102212910DA8FFF73D
:1030C000C6FA07A9204601F06DFF00282ED000980F
:1030D00001F0B0FF0B9002200590009803900320B0
:1030E00004901B21306889014118497E012389071A
:1030F00012D51121C901083040181322C06F0221D6
:1031000001F052FA010007D0039A8A80049A8A716A
:10311000CF71059801F0A6FA0B983A280CD01198B7
:10312000EF21C07B08401199C87312E007A90098ED
:1031300001F087FF0B90EFE710220DA91298FFF71F
:1031400086FA72B63068FB224030C1791140C171F5
:1031500062B6207A002802D0204601F079FF6D1C6B
:10316000EDB23068AC21095CA9428ED81E4D3068A2
:10317000401901F08FF800282DD1306806A94019B8
:1031800001F0A0FE0698808802F02AF80400EED034
:1031900006988168097B0529214604D002F044F88D
:1031A000FF2803D010E002F0B9F816E00698816815
:1031B000097B03290AD06E21095D090706D5009015
:1031C0000194684602F0B2F8002806D030680699EB
:1031D000401901F0B4FE15B0F0BD0121069802F0CF
:1031E000A7F8C4E7B00000207C070000C9B202784D
:1031F0008A4203D0401C002AF9D100207047704752
:1032000080B5002801D100BF07A006490B68002B3C
:1032100003D022220021984701E002F0A7F82220E3
:1032200002BD0000B4050020636F6E7374726169A3
:103230006E742068616E646C65723A20626164200D
:103240006D65737361676500431C0178401C09421A
:10325000FBD1C01A70477047C9B2521E05D303781C
:10326000401C8B42F9D1401E7047002070477047C8
:10327000A446521E08D303780C78401C491CA34274
:10328000F7D0181B64467047002064467047002042
:1032900070477047F3B581B0934A012101A802F04D
:1032A0006AF8924C04222060432101A802F063F8DE
:1032B00011272168FF01C91908670422432101A8C9
:1032C00002F059F821680422C9194867FF218431A6
:1032D00001A802F050F82168854DC9198867A97FB7
:1032E0000C2201A80B3102F046F80526216876026F
:1032F00089198863A97F202201A802F03CF821687F
:10330000102289198862A97F01A802F034F8216887
:1033100028228919C862052101A802F02CF8216829
:10332000302289194863052101A802F024F8216898
:10333000FF22891908630132012101A802F01BF85C
:103340002168582289190864A97F01A802F013F89E
:103350002168202289194861A97F01A802F00BF891
:103360002168782289198861A97F01A802F003F8F1
:103370000F212268C9015118C8630722032101A83F
:1033800001F0F9FF0F212268C901511808642822B1
:10339000012101A801F0EFFF0F212268C901511896
:1033A0008864AA8B012101A801F0E5FF07212268AA
:1033B00009025118C866298B282201A801F0DBFFF9
:1033C00007212268090251184866698B302201A83A
:1033D00001F0D1FF072122680902511888660C22EA
:1033E000012101A801F0C7FF21680C228919086199
:1033F000012101A801F0BFFF21682822891909696C
:103400008860284620300090417801A801F0B3FF81
:1034100021680422891909698968886000984178BF
:1034200001A8491C01F0A7FF216810228919096928
:1034300089684860A97F01A801F09DFF21680222E8
:10344000C9194866A97F01A801F095FF21680222E9
:10345000C919C863A97F01A801F08DFF2168022264
:10346000C9190864A97F01A801F085FF216802221B
:10347000C9194864A97F01A801F07DFF21680122D4
:10348000C9198864A97F01A8491C01F074FF21684B
:103490001022C91908660B2101A801F06CFF072151
:1034A00022680902511848600422802101A801F015
:1034B00062FF21688919C861029ADC204243012118
:1034C00001A8443201F057FF216889190862029A65
:1034D000D8204243012101A82C3201F04CFF216881
:1034E000891948620198FEBD580A0000B00000200A
:1034F0000C05002070477047F0B526480522036888
:1035000052029818806B1321C901044659180C34D3
:10351000CC6288620C340C630C344C630C348C63C6
:103520000C34CC630C340C640C348C660C34CC66D8
:103530000C340C6778304867002017499C1811E05C
:10354000A36A45015D19582343431F466669343712
:10355000F5510C254543A66B8435751928336669EA
:10356000401CF5508B7F8342EAD80A4B00201C6830
:10357000A41807E0E56A0601AE1945010835A769F8
:10358000401C7E518D7F8542F4D8C868196889181F
:103590004864F0BDB00000200C05002070470020FA
:1035A0007047002070477047C020000601688022E5
:1035B0000A430260016880229143016070477047AE
:1035C0003EB5174D15482968827F0846A0310A7319
:1035D00000246030047644768476E122C27680222C
:1035E000027702224277302008704C7002AA01A9AB
:1035F0006846FEF7A7FF68460078A22201016846E8
:10360000007A891C000201436846007900030143E7
:1036100028681152A03004713EBD00000C05002046
:10362000B000002070B501F0B1FE01F0CBFE01F05A
:103630008BFF01F0BDFF01F0CBFF184C184920684B
:10364000184D4018811001202A68C0021018C16668
:10365000616889080167A1688908416701F0E4FF92
:103660001D2029688001228B08180287628B4287FF
:10367000A28B4286628C82862046203002783B20D4
:103680004001081882750021017002F007F802F06D
:103690000FF802F047F802F053F870BD0C05002057
:1036A0000000FCEFB000002010B5012818D8072951
:1036B00016D80C4A126813462033187759778007BA
:1036C000C906000E090E01430020074BA03204E09A
:1036D0008401E418A172401CC0B2147B8442F7D864
:1036E000002010BDB00000200001002070B5294D61
:1036F000274A28680021FF301B30FEF7AEFF2868FC
:10370000FF21F22211261154B601821951729172D1
:10371000D172214AF4210A505D231B01F822FF21B6
:10372000C018FEF79AFF1D4B28687822FF21C018A9
:10373000FEF793FF194B2868F8337822FF21C01851
:10374000FEF78BFF9B232868DB007822FF21C0183F
:10375000FEF783FF2868002481190C761321890164
:1037600041180C751521890141180C741721890124
:103770004018047302F010F8296801230A468032C9
:10378000906788190475E0314B74D467847570BDF7
:103790002A030000B0000020905F01005C040000DC
:1037A000F0B5444F0446386885B0783016460D466B
:1037B000002C19D0062C11D0082C0CD0182C0AD0B3
:1037C000282C0BD02A2C09D02C2C0AD02E2C0BD034
:1037D000D02C42D043E0102D08D040E0022D05D07F
:1037E0003DE0012D02D03AE0062D38D10A460019FD
:1037F0003146FEF72CFF2C2C28D13078002825D01C
:10380000FFF745FD012824D01B201F304009401C34
:1038100041004118012001F0C9FFFFF738FD0128E0
:1038200019D01B201F304009410041182248407820
:10383000401AC01EC1B2002001F0B8FF3868402213
:10384000403001781143F92211400170002005B089
:10385000F0BDFB20D9E7FB20E4E7012D04D0FFF702
:1038600016FD012804D007E0107801F0ABFFEEE769
:10387000D12C01D1082D01D01220E8E702223146D7
:103880006846FEF7E4FE0222B11C01A8FEF7DFFE47
:103890000222311D02A8FEF7DAFE0222B11D03A8A2
:1038A000FEF7D5FE6846838902898188008801F089
:1038B00099FFCCE7B00000202C050020F0B55FA0F8
:1038C00099B000685E491590E3220868D200841818
:1038D00005225202821892692546403514922A7AAE
:1038E000D20702D0622019B0F0BDAA8B01235B027F
:1038F0009A4201D9AB8303E0172A01D21722AA8387
:10390000149AA0301392067B0DE0761EF6B213983F
:1039100071010F18B8680F90384620220021FEF779
:103920009CFE0F98B860002EEFD120460830E06072
:103930006460A06024600830139060612061FF2201
:103940000021083001F050FF2046FF2200212430E2
:1039500001F04AFF2046AA7F0021303001F044FFE9
:103960002046FF2200213C3001F03EFF00222A7257
:1039700010461721324B05E0149E4701BE19401C2A
:103980007180C0B21E68A036367B8642F4D8002013
:1039900028832F8C688C0026149008E02820E16C86
:1039A00070430918204600F02DFC761CB6B2BE42CA
:1039B000F4D3002608E03020216D704309181398D5
:1039C00000F020FC761CB6B214988642F3D3012096
:1039D00001F012FF0124684604701A494180234611
:1039E000042269460CA801F013FF002822D1684682
:1039F000018E818214490183042606858475202165
:103A000008A881720024C47204730721417384736F
:103A100005A90DA801F0ACFF00280BD1684604876A
:103A20004687818E15AB0EAA008E02F03DF9002864
:103A300000D158E700202872472054E70000FFFF1C
:103A4000B000002001180000052A0000FFB50C4658
:103A500078A103C995B001910090002108A80173D5
:103A60000321C90268464186012108A8734E0174EA
:103A700035681746AE3502F04BF9002808D1704979
:103A80003068401802F0D8F9A878002802D0462003
:103A900019B0F0BD0BA8159902F0D8F90028F7D19C
:103AA000072010A90871012C05D0022C0AD0002C87
:103AB0000ED04220ECE708A8017B1020014308A8A3
:103AC000017305E011A90BA802F0CEF90028DFD19F
:103AD00010A8027901230CA9284601F099FE0028BC
:103AE0007ED1022229461898FEF7B1FD2988684642
:103AF00081811521490201820784012686734E21A6
:103B000008A881700024C470067107214171867174
:103B100003A902A801F02CFF002861D1022202A90A
:103B20001E98FEF794FD082F02D26846478502E0F2
:103B300008206946488569460C850B4628880AAAEC
:103B4000098902F0B1F800286DD13E49684601822A
:103B50000227078408A8847103A902A801F008FFBE
:103B6000002860D1022202A91F98FEF770FD684666
:103B70000470694644704F850B4628880AAA098953
:103B800002F092F800284ED108A8007BC00723D08D
:103B90002C496846C91C01820821018408A8877045
:103BA000047103A902A801F0E3FE00283BD1FF2124
:103BB0006846C1718171C17081704170017044713A
:103BC00004716946082048850B4628880AAA098995
:103BD00002F06AF8002826D108A8007B800600E0E1
:103BE00021E022D52988684681811649A5310182C4
:103BF0000684867308A88770C47004710721417118
:103C0000847103A902A801F0B3FE00280BD1694614
:103C10000E700C854E850B4628880AAA098902F089
:103C200043F8002801D0472032E708A8007BA8709D
:103C300000202DE7626C75656E726721B000002070
:103C4000DE060000012A0000FFB5002099B0239A8B
:103C50000B90129005461490064615901C46DB48C2
:103C60000B460068E321C900411803910021229FFF
:103C7000089109915188069111880A913B214901C7
:103C800040180078C00706D00FA9184602F0EEF8D9
:103C900000280AD102E047201DB0F0BD10AA0F99FC
:103CA0001B9802F0F9F8002801D06020F4E7199879
:103CB000002803D0600701D5012000E00020139008
:103CC000A007800F1C90109817902030C078012812
:103CD00040D11798BE4B01899942F9D1179806999E
:103CE00004680A98228C4118914233D8204620302B
:103CF00016908078012816D0E08B04901798806980
:103D000000788006800F7DD0039840301890007AAC
:103D1000800777D51C980028F5D0AD4F0F99FF3755
:103D20002031206814E0BA4214D3B942DDD8049798
:103D3000E4E70389A64A934203D12322125C012AB5
:103D400008D0BB4203D12322125C012A03D00068B1
:103D50008842EED134E105900028FBD09B48052134
:103D600002684902511889690027009162E07801D0
:103D700000990390085A01055AD01999002901D0D9
:103D8000884255D105997A008B69511C595C9A5C1F
:103D90000902891889B20D91890749D00222059933
:103DA00002F089F8002804D01998002840D0652036
:103DB00072E7002008A9C8551C98C00718D01798AA
:103DC00080690078C00613D50D98C00710D0012077
:103DD000C8550543009A039880184088159A904268
:103DE00006D91590009A0398105A0005000D1490FA
:103DF0001C9880071CD5179880690078800617D515
:103E00000D9800E084E0800712D50220CA5D0543CA
:103E10000243CA5500990398401840881599884272
:103E200006D9159000990398085A0005000D1490C2
:103E30007F1CFFB265480068A030037BBB4296D868
:103E4000002D65D01898007A00065FD45F4801689D
:103E5000052040020818816900201BE042018E5AAB
:103E6000360515D0AE070BD556183669B7070DD4F1
:103E700008AF3F5CBF0703D5360701D546200BE7E7
:103E8000EE0705D05218127CD20701D0432003E779
:103E9000401CC0B28342E1D81598C01E86B2049877
:103EA000864200D90646A8070FD520220020149983
:103EB00002F02AF8129000287DD0F01C82B2002176
:103EC000129802F043F8002811D1E80720D02022F0
:103ED0000020149902F018F80B90002807D0F01C6D
:103EE00082B200210B9802F031F8002810D0802017
:103EF00001F082FC1298002802D0002101F018FA8B
:103F00000B98002802D0002101F012FA6420C3E6C9
:103F1000A1690A98069A08182499FEF798FB169842
:103F20008078012801D10498E083002D46D0274BEA
:103F300005201968400208188169002008AA0CE0D1
:103F40004301CF5A3F0506D05F18BC463B69175C5A
:103F50003B4367463B61401CC0B21C4B1B68A0330F
:103F60001B7B8342ECD8A8070DD512980090F01C5B
:103F700082B221461C310220A36901F0EEFF02202B
:103F8000129902F009F8E80718D00B980090F61C77
:103F90002146B2B21C310120A36901F0DEFF139863
:103FA000002805D00B988021C07C08430B99C87469
:103FB00001200B9900E005E001F0EEFF00206BE628
:103FC000422069E6802001F017FC9FE7B000002046
:103FD0000328000070B586B014461D460A46034605
:103FE0006946881C0A9E01F0FDFF002804D1012CBF
:103FF00004D0022C02D0422006B070BD23462A46CF
:104000006946304601F004FCF6E7F0B587B01C467F
:104010000B46054600A9023101A80C9F0D9E01F038
:10402000E1FF00280ED16846058084828775C67539
:104030000E9901760F99417610998176694611980B
:1040400001F096FC07B0F0BDF0B5144A144B1268AD
:10405000D3181A6C154608321F2901D93020F0BD3B
:1040600000249E6B1F6C365D3E55641CE4B2082C28
:10407000F7D3002405E00678641C1670401CE4B2F7
:10408000521C8C42F7D3186C891D4170986B9D634C
:1040900018648033186A45800020F0BDB00000200D
:1040A00008090000F0B5054600200F46079E059C54
:1040B000174309D0202905D30127BF03BA4201D8ED
:1040C000914201D94220F0BD194621430AD09C42B9
:1040D000F8D309498C4203D00849A41F8C42F1D27D
:1040E000062BEFD3002D03D0022D01D0032DE9D1F3
:1040F000032EE7D8F0BD0000FFFF00007B0C00009E
:10410000F0B58DB00C4616A9E0C9002108910991BF
:104110000A910B911599049105A9E0C112A962C9F0
:104120000093019113460146039602952246012011
:1041300001F06CFF0DB0F0BD10B50A4A830B126898
:104140008004526A800C140A60435A438009101894
:1041500000228A5E821A10464030C009C3019A1AB2
:104160000A8010BDB000002010B5030002F008F86E
:104170003A332D2D2D1E2130332A2A2A2A2A2A2A83
:104180002A2A2424242424242424242424242424E3
:1041900024242424242424242424242424242424DF
:1041A00024242427272727272727273301F0F5FF53
:1041B00010BD01F0F3FF10BD02F014F810BD02F0C5
:1041C0001FF810BD02F04CF810BD02F085F810BDCC
:1041D00002F0BCF810BD3A38C0B20428FAD202F09E
:1041E000B6F810BD00B50B4602F0B2F8002808D0B2
:1041F00003CB083B086003CB41600020083B1860FC
:10420000586000BD086042684A60426811604160C1
:10421000704708B500216A4611806946FFF78CFF98
:1042200008BD70470649C20B09684004096A400C82
:10423000CB0958435143000A0818203080097047C1
:10424000B000002030B5EFF3108172B60922D2061B
:104250001269FF25821A120214120C4A9135136852
:10426000AC4208DC0122120690431A464032D4794F
:10427000DF252C40D471C2010724D20924021B1966
:104280001A61034A906081F3108830BDB0000020AD
:10429000400000480068002801D00020704701203D
:1042A000704700687047704710B5044600202082B0
:1042B000A074A168A16161612060204602F054F8F9
:1042C000452801D0412010BDA088032102F074F8D8
:1042D000044602F0B7F8002812D072B6094801224D
:1042E00001684F20400109184879A24010434871E5
:1042F00062B6002002F0C0F8002801D002F090F968
:10430000002010BDB000002010B5044600688842AF
:1043100009D10268226000220260206800280BD1C7
:10432000626009E0104602688A42FBD10A680260B6
:1043300062688A4200D16060084602F08FFCE17A30
:10434000081AE072A07A401EA07210BD00207047CB
:1043500070477047F8B5104E30682030C57D002D8D
:1043600019D0002405277F0210E0E9070BD0C019FF
:1043700041695820604308184030417D204602F0D2
:1043800073FC002807D06D08641CE4B23068AC21CF
:10439000095CA142E9D8F8BDB00000207047704721
:1043A0003EB50B4801AA0468694602A8683402F0C9
:1043B000ADFC00280BD06846007AE18801228240DB
:1043C000114204D069460978019AFDF7FAFC3EBD16
:1043D000B000002004490020086104480121006861
:1043E0006030C1717047000000001048B00000202C
:1043F00070B51A4A1A4CD37B2268002B11D01A4E82
:10440000184B8009CDB2584375430B0A2D0A7343EC
:1044100010355B19154D80305B09000A6943090CA2
:1044200004E0192312481B04FF21E931114D1186C4
:1044300069805362106209482038008EFFF7F2FE4F
:10444000E914884200D3481E40052168000E20313F
:1044500008752988090700D4687270BD2C050020F2
:10446000B000002053070000F6BC0800550500000E
:10447000C2F52800C0000020F8B50C46CA88098A99
:104480004030521A8088102695B2A84205D20546BF
:10449000E07C4006400EE07403E02068002800D174
:1044A0000026002904D1207B800701D5022000E0EE
:1044B0000120CF060643FF0EE81982B20E48A1691B
:1044C0000368052040021818006A001D02F03EFC37
:1044D00060610948A5740168052040020818016A56
:1044E000B81C0E5404480168052040020818006AF0
:1044F000FF1CC555F8BD0000B000002070B5134E7C
:10450000134A31688D182C681DE0017B227B914293
:1045100018D121462846FFF765FE28462146083077
:10452000FFF770FE207B3A2803D220352878401E02
:10453000287072B63068DF224030C1791140C171F5
:1045400062B670BD2468AC42DFD170BDB0000020FF
:10455000F406000010B50446C1061148006803D5F2
:104560001522BF210C4006E01B2189014118497E1C
:10457000C90710D012222107890E08181121C9017C
:104580004018C06F0023214600F00EF8010004D04F
:10459000204600F067F8002010BD072010BD000085
:1045A000B000002070470000FFB5044600262C4FE5
:1045B00083B09C460D46080616D572B601AB6A4616
:1045C0006146204602F0E6FB00280BD06846818851
:1045D00000988278920892008270018061800126A2
:1045E00062B615E062B621E001AB6A46614620463C
:1045F00002F0D0FB002819D0680609D468468188EB
:104600000098827892089200827001806180012671
:104610000098AA00817840238907890F1A40114326
:1046200081700599C170002E0ED115E00020009018
:1046300072B6A8060FD411203968C0010818816E1F
:1046400008221143816662B672B63868F72240309C
:10465000C1791140C17162B6009807B0F0BD000089
:10466000B00000200A46400608D5D0783A280AD281
:10467000111D054B80001B58104618479078800884
:104680008000801C8870704704FB0410F0B504465D
:104690003C48E3210068C9004518218A85B0890497
:1046A0001AD5022104911B2189014118497F412615
:1046B00027880123C9070FD01121C90108304018EC
:1046C0003122C06F0221FFF76FFF010004D08F80FD
:1046D0008E710498FFF7C6FF294620880122183101
:1046E00002F08EFB294620880122303102F088FB3F
:1046F000294620880122243102F082FB29462088A5
:1047000000223C3102F07CFB20880005000D02F005
:1047100091FB85002946113168460173FFF7EEFED3
:104720002946123168460173FFF7E8FE2946133126
:1047300068460173FFF7E2FE684614350573FFF71C
:10474000DDFE208802F092FB208801050D48090D4E
:104750000268052040021018828F914201D1002189
:104760008187E069002802D0012100F0E1FD2022CC
:1047700000212046A568FDF770FF1720A560608026
:1047800005B0F0BDB000002010B5412400F028FDB8
:10479000002805D06030C17B80221143C173002402
:1047A000204610BD10B594B0044600F019FD002855
:1047B0001AD0C17B6A46C907C90F683002F00CFCE9
:1047C00000280DD0204600F00BFD00280CD0017A07
:1047D000F12907D1007BC10704D0800702D5002052
:1047E00014B010BD5E20FBE74020F9E7F1B5FFB043
:1047F0008BB00124600205900027CC480797016820
:10480000E320C000081803908A98C74D0005000DEA
:104810000AAA05A902F042FC0690002872D10426DB
:104820000AA805994218203AD27F0B2A23D00026E5
:10483000002004900AA88119022201A80291FDF724
:1048400006FF6846818809AB08AA039802F044FC79
:10485000012817D002287DD068468088854200D381
:104860000546844200D920460446029880780128F3
:1048700071D013363BE1491E761E36040591360C85
:10488000CFD1D5E708980090002F79D10099022266
:1048900028310298FDF7EBFE00281ED10098203049
:1048A000017B02988078814217D1012808D10098B5
:1048B000029902220830C91CFDF7D9FE002815D044
:1048C00002988078022808D10098029910220830B6
:1048D000C91CFDF7CCFE002808D00098008DA84226
:1048E00000D80546A04200D22046044602990AA8F4
:1048F0008978012907D013360599B6B28E4204D3C0
:10490000012707E005E1761DF6E78119022201A8DB
:10491000FDF79DFE0399009808318E462EE08446EF
:104920006946026A8B8820300DE0918B994203D34F
:10493000012F7DD199427BD9A94200D80D46A142D1
:1049400000D30C4612688242EFD10498002817D198
:10495000604601E015E0BFE0006870450ED0018DB3
:10496000994203D3012F09D1994207D98D4200D32F
:104970000D468C4200D80C46012F59D17045CED13E
:10498000BAE008980090002F72D1009902221C31E1
:104990000298FDF76CFE00281ED100982030C178E7
:1049A00002988078814217D1012808D10098029995
:1049B00002220830C91CFDF75AFE00281AD00298BE
:1049C0008078022808D10098029910220830C91C6A
:1049D000FDF74DFE00280DD00098808BA84200D82E
:1049E0000546A04200D2204604460298807801285D
:1049F00026D003E002988078012805D01336079866
:104A0000B6B201281ED021E00098494900898842A9
:104A100016D18A9802F07EFB0146009802F098FBBE
:104A20000099098C4843009989694018022200E0E6
:104A300038E00299491DFDF70AFE01200790D4E7EE
:104A4000761DDCE7B61C0020B6B2079005988642BA
:104A500001D3012705E00AA88119022201A8FDF768
:104A6000F6FD039A0099083209980968944630E0E7
:104A70001AE086466A46938820300DE08A8B9A4277
:104A800003D3012F0ED19A420CD9AA4200D8154661
:104A9000A24200D3144609688142EFD1049800284D
:104AA0002AD102E00120049026E0704600686045AB
:104AB0000FD0028D016A9A4203D3012F09D19A4285
:104AC00007D9954200D31546944200D81446012FC9
:104AD000E8D16045CDD10FE00298C078022805D119
:104AE00002980079292801D1B61CB6B2761D059826
:104AF000B6B2864200D301270598811B042902D350
:104B0000864200D294E604980028FBD1A54203D93E
:104B100006987FB00CB0F0BD224629468A9802F074
:104B20003FFB0690F5E70000FFFF0000B00000200B
:104B300002290000F0B56348E3220168D2008DB07D
:104B40008A180C9205225202891800278D69AFE05D
:104B50007E01A85B002872D070190A90C0690028F5
:104B600066D00A990969CA0532D54A0530D58068E8
:104B70000124A402007BA1430A9A1D28116154D08C
:104B80001B2852D00A9A927B824202D0012802D07E
:104B90004BE0012806D10A98C0698068407B401C20
:104BA00082424CD1C80509D5A95B022002F01AFB4C
:104BB0000A98FF2201690132914301610A988169D3
:104BC0008847452831D10A980169214301612CE0C9
:104BD000012100F0ADFB0A990020C8610A9801216B
:104BE000026989028A4302614220019002200890F2
:104BF00005900A98069020681121C90108304018D4
:104C000001232122C06F0199FFF7CEFC04000CD0D4
:104C10000899217105996171A01D059A0699FDF702
:104C200016FD21460198FFF71DFDA85B00283DD029
:104C30000C9824300490FFF734FB044634E035E050
:104C400020680890A068A388017BA85B0205120D6C
:104C50008446934216D11D2914D10A9800698646CC
:104C6000C0040FD40122120371460A981143016156
:104C7000A95B032002F0C4FAA95B2246022002F0DD
:104C8000D1FA08E093420ED11B290CD1224661468D
:104C9000022002F00FFB21460498FFF735FB0121AB
:104CA000204600F045FB089C002CC9D17F1CFFB2B8
:104CB000044C2068A030007BB84200D948E70DB012
:104CC000F0BD0000B0000020F0B57D49E322096886
:104CD000D2008E1885B0012806D0304618300090DA
:104CE000FFF7DFFA0446E7E0304624300390FFF791
:104CF000D8FA0546BCE0A8682F68007B0290A88817
:104D000002F008FA040073D021882022002001F06C
:104D1000FBF8019000286CD0E8886188884204D9AB
:104D200000220420019B029920E046200090029876
:104D30000E284ED00ADC801E030001F021FA0B1C65
:104D400013221329132F13381341130016285AD096
:104D500004DC102846D0122804D14BE018285BD080
:104D60001D2874D000220620019B029902F0EAFA65
:104D7000002000905CE029462046019A02F0F6FAF5
:104D80004FE02A4621463046019B02F049FB48E0AD
:104D900029462046019A02F037FC42E020690003D0
:104DA00055D429462046019A02F024FD39E02069B5
:104DB00000034CD429462046019A02F083FE30E0DD
:104DC0002069000343D429462046019A02F00FFFD0
:104DD00027E0206900033AD429462046019A02F0D0
:104DE000A7FF1EE029462046019A03F06BF818E061
:104DF00035E040E02069800329D429462046019A05
:104E000003F052F90DE02069800320D429462046A2
:104E1000019A03F0E7F904E029462046019A03F0DD
:104E20009DFA0090452812D0692810D046280ED04F
:104E30000121206909068843102108432061019857
:104E400003F06AFB0098002809D010E0FFE700217A
:104E5000019800F06DFA009845280CD0F2E7294639
:104E60000398FFF751FA0121284600F061FA3D4608
:104E7000002D00D03FE705B0F0BDA0682668077B95
:104E8000A08802F047F905000DD0522F01D0D22F93
:104E900006D1286940030ED42146284603F052FB70
:104EA0002869400307D421460098FFF72DFA012115
:104EB000204600F03DFA3446002CDED1DBE700004E
:104EC000B000002010B50446006808602068026841
:104ED0002260002202602068002800D16260086819
:104EE00001F0BCFEE17A081AE072A07A401EA072BE
:104EF00010BD10B50C460146042805D0052903D085
:104F0000062901D0502010BDA068A2790272E08865
:104F1000020AA0684272A0688172A068090AC17280
:104F2000E088001DE080022020732046FFF7BCF9D6
:104F30000028E8D0E088001FE080412010BD10B5B7
:104F40000446006808602068002800D161600846B7
:104F5000216001F083FEE17A4018E072A07A401CE3
:104F6000A07210BD0D49052209685202891809690D
:104F700072B60122824350004218084B095C05209A
:104F80001B68400218180069527800798A4202D9D9
:104F9000511A401AC0B262B670470000B00000203B
:104FA00070470000F3B585B0002704460546064665
:104FB0000197007A1E352636BC282CD0F12819D14D
:104FC0006E20005D000706D5214610222E312846AE
:104FD000FDF73DFB1FE020461230002302AA2946C0
:104FE000039003F045FB0222314602A8FDF73FFB88
:104FF000002807D022462946304603F077FB41209F
:1050000007B0F0BD0A48009700682B4601AA039933
:10501000803003F0BBFB102200210698FDF71DFB3A
:10502000A27B29460698FDF712FB0020E8E7000066
:10503000B000002010B501460022412003F0BEFB65
:1050400010BD0A4610B50146002003F0B7FB10BDA5
:10505000F0B50446007A2546603595B0102820D07A
:10506000D1287ED0D2287CD0D3287AD0D42878D02A
:10507000D52876D0F02878D0FE287AD0A2286DD016
:10508000B2287FD0B4286AD0BF28204668D003F069
:10509000E3FBA87B000702D5204603F0DEFB15B03A
:1050A000F0BDE07B6A46C1072046C90F683001F0B9
:1050B00093FF4A4F00282BD003F0D0FB002825D0C7
:1050C000A87BC00722D003F0D3FBFA281ED000280B
:1050D0001CD0687B400619D5022014901B2138682B
:1050E00089014118897E268A012309070ED51127D7
:1050F000FF010830C0191A220221C06FFFF754FACD
:10510000010003D08E801498FFF7ACFA00204EE027
:105110006946204603F0CEFB208A0104B9D502215E
:10512000149106051B21386889014118497E360D06
:1051300001230907ADD51127FF010830C019152239
:105140000221C06FFFF730FA0100A2D08E801498C0
:10515000FFF788FA9DE704E007E00AE012E02AE0A2
:1051600038E0204603F018FC93E7204603F0A2FC49
:105170008FE7E87B00068CD5782200212046FDF7DA
:105180006CFA86E7A97B0120090704D5204603F0C5
:10519000D9FC0028DED0617A022902D1617BC906E0
:1051A000D8D50028D6D0A87BC00702D0B420207262
:1051B0006FE7A420FBE720461021583003F0C4FC21
:1051C000A87B000703D5204603F0CEFC61E7B5219C
:1051D00021725EE703F0C9FC5BE70000B00000202D
:1051E00070B500281CD00F4A0F231268DB0104059C
:1051F0000021D318240DA032127B0FE00846782638
:105200007043DD6B1030285A0005000DA04203D119
:1052100078225143681870BD491CC9B28A42EDD842
:10522000002070BDB0000020FEB50C460746B968EE
:10523000FF200E7B217AD02922D025466035A97B1C
:10524000090706D568460097019403F0A9FCFF28DA
:1052500015D1A97BC90758D0217A002916D0F12988
:1052600014D0B52943D0B62948D0E12907D1012E61
:1052700005D1012300220921204603F093FCFEBD45
:105280002146384603F0A3FC0020FEBD012EFCD1D0
:10529000E87B410722D5FB21084008210843E87339
:1052A0001D481B21006889014118497E0225890695
:1052B0000ED51123DB010830C01817220221C06F60
:1052C0000023FFF771F9010002D02846FFF7CAF961
:1052D000208A03F0E7FC03F005FD01E0000701D59B
:1052E0004320FEBD2146384603F00CFDFEBD032ED3
:1052F000FCD12146384603F0E5FDFEBD042EFCD16D
:105300002146384603F01CFEFEBD68460097019416
:1053100003F0AEFEFEBD0000B000002010B50A464E
:1053200081681046497B03F0A5FE10BD1F20704721
:10533000F8B50E460C49052209685202891808384A
:1053400007460C6903F0D0FE05463946A06803F015
:10535000D5FE72B67100605C401B60542079401924
:10536000207162B6F8BD0000B000002080B50120B9
:1053700003F0E0FE01BD10B5034600680324401EA3
:1053800020435143401C4118196010BD70B50B48B3
:105390000B49006844182646646008362460E660BD
:1053A0000025A6602069290141183046FEF72AFF32
:1053B0006D1CEDB20B2DF5D370BD0000B0000020C8
:1053C000F4060000F8B55B4F5B483D6800222818E2
:1053D00001460523027620315B020A73ED186E6BDD
:1053E000283686636D6B544E5035456308358562AB
:1053F00007258D73416B0A70456B062169703C6807
:10540000E1184D6B7835C563496B0825A0310164FF
:105410000146C0314A720A72CD738D731B250D820D
:10542000FF2549354D82FB258D82C03ECE820D83FE
:105430004E8342496265216501463C462668B5189F
:10544000F618776B603516462D7E2A36BD552668D0
:10545000F618776B16465236BD552668F618776BE8
:1054600016467A36BD552668F618776B1646A2366C
:10547000BD550D70521CD2B2491C062ADED3002540
:105480000D70826B06215170426B51700246803262
:105490005561294695611BE005256D025B1958256C
:1054A0004D435F692B46264E0A33FE52052327687B
:1054B0005B02FB185F692B4600262033FE50052354
:1054C00027685B02FB1824355B69491C5E51C9B231
:1054D0002368AC25ED5C8D42DED800250121958343
:1054E000C902018455640520216840020918898C8D
:1054F000936B891C598021680818808C516B801C23
:1055000048801048818D20684030018603F01CFEE1
:10551000452120684901411823220D739201082179
:105520008018817403F05EFE03F070FE2068203066
:10553000C574F8BDB000002008090000862E0000E8
:10554000FFFF00000C05002070B51748052100681A
:10555000490240180469042200212046FDF77DF825
:10556000124D688C23304009401CC1B2002000F06D
:105570001DF9688CA97F23304009801C4843401CDA
:10558000C1B2012000F012F928462030A16840780D
:105590004870A06803F048FEA06872B6007862B652
:1055A0002071002070BD0000B00000200C0500201C
:1055B000064800210268052040021018017341735B
:1055C00003218173C173002070470000B0000020E8
:1055D00070B50023134A1DE01125ED014019190192
:1055E000466E0024C81C345410684019466E081DCD
:1055F000345410684019406E445210684019466E89
:1056000008460830345210680C314019406E5B1C5B
:105610004450DBB21068AC21095C9942DCD8002010
:1056200070BD0000B000002070B51A4C1A4B206805
:10563000FF220021C01800F0D7F83D202568400166
:105640000021281881750F22C175D2010123A818E5
:105650004372072686720A26C6721F26B601AD1946
:105660006B71C17301610372017541750020431EA6
:1056700007E08918CD6B78214143091D401C6B5010
:10568000C0B22168AC256D5C8542F2D8002003F0E1
:1056900000FE70BDB00000207C0700000348002120
:1056A0000068AE30C170817070470000B00000200B
:1056B00070B51A4C1B252068AD0141190026184B06
:1056C0000E720622FF21C018FCF7C7FF20682021B8
:1056D0004019C6730174FDF7DAFD01281CD01F20A4
:1056E00021680F4B491948742068093307220021AB
:1056F000C018FCF7B2FF0A4B206810330522FF21C7
:10570000C018FCF7AAFF064B20681B33FF220021BC
:10571000C01800F069F870BD5F20E1E7B00000201C
:10572000C906000010B505486F2300681B0104225C
:105730000021C018FCF791FF10BD0000B000002050
:1057400070B503F0A7FD124C11252068ED0140193A
:10575000006F402103F0ACFD21684919C867486F0C
:10576000402103F0A5FD0926216836028A19106040
:105770004819FF21806F813103F09AFD23680822C8
:1057800099194860034800211818FCF766FF70BD9E
:10579000B0000020E808000010B50920C00600692C
:1057A0000002000A03F08AFD10BD0000044A052330
:1057B00012685B02D218126940008018417070476D
:1057C000B000002070B50546002403F089FD0028D4
:1057D00001D0462404E0012D02D1012003F059FD3F
:1057E000204670BD42207047002303604360417231
:1057F0000272C3728372704704490A683B214901EF
:1058000051180A7802430A7070470000B000002067
:10581000FFB58FB014460E78102205A8891CFCF73E
:1058200009FF5048E3210068C900451803F074FDE2
:1058300000281ED1002C57D0012E09D16846808A3D
:105840004949884204D12846A968083081424BD191
:105850002846103029690390814209D00AA92846B8
:1058600003F074FD6846018D601E0D90814202D2E6
:10587000482013B0F0BD284608300CA9049003F06E
:1058800065FD6846008E002814D0EF680AA93846E6
:10589000183003F05BFD384620300CA903F056FDAC
:1058A0006846398D008D09186846008E401C08181E
:1058B00087B200E0012701200004C01BA04201D2F2
:1058C0006120D6E72C69286801901298012802D03F
:1058D000022803D008E00520C00200E023486085CC
:1058E000012E03D0022E05D04220C2E72046083008
:1058F000022202E020460830102205A9FCF7A7FE8C
:10590000204631462030064601730F982146078015
:1059100027850398FEF766FC21460498FEF772FC83
:1059200027461837E7616662A76126620D9884B240
:105930000BE028460199FEF755FC38460199FEF721
:1059400061FC2868641EA4B20190002CF1D10F986C
:1059500001880D98081882B2002001F021FC002077
:1059600087E70000B00000200118000001280000B7
:10597000F3B5A5B008881A9088780C4611901022CB
:10598000091D13A8FCF756FEA08A1090A17D684659
:105990000172E07D0F90207E2090677EA07E1F9098
:1059A000002006460146129020A801810F20BB4C22
:1059B0002390E3212068C9004018199003F0ACFC43
:1059C00000280BD101211098490288425FD821A9F3
:1059D0001A9800F04BFA002802D0602027B0F0BDE2
:1059E0002198179003F0BCFC1A9988420CD102A8A8
:1059F00001901698009013AD0ECD119803F0B8FCED
:105A0000002801D06320E9E76846017A8806800F04
:105A100005D0012012902068A030007B4600C80706
:105A200003D01298401CB61C1290080603D5129899
:105A3000401CB61C129017980DA918301D9003F049
:105A400085FC6846129C808EA41CA04237D3179810
:105A50000EA92030019003F079FC6846018F0029DF
:105A60000DD01798179A6B46406A9B8E128D591865
:105A7000808B5118081AA04201D26120AEE7179816
:105A8000846911982568012803D0022803D0422098
:105A9000A4E7052000E01320E0832A4639460F984A
:105AA00003F09EFC422899D0199FE28B4037788BF7
:105AB000398B411A109810188019814201DA482058
:105AC0008CE70EA9019803F041FC6846008F00287E
:105AD000179802D0406A808B00E0008D2599401C09
