:020000041004E6
:1000000000600020A3280510A3270510A5270510D0
:10001000AA5555AA45554C420000000000000000BA
:10002000000000000000000000000000A7270510ED
:100030000000000000000000E3210410A9270510C3
:10004000B12705109F3204100000000000000000DE
:10005000B9110410B3330410B3270510134504106D
:100060000000000000000000000000000000000090
:100070000000000077470410274804103F48041090
:1000800000000000873504103B3F0410933F04102C
:100090000F4004106340041027550410A3540410AB
:1000A0000000000000000000000000000000000050
:1000B0000000000000000000000000000000000040
:1000C00070B586B00121092001F09AF88020400027
:1000D0000190012401AE34710025B571757101A83C
:1000E00001F0F2F8E0020190347101A801F0ECF89F
:1000F000E12040020390032603A806714671C580E3
:1001000045720672847201F06FF9002001F02CFA3A
:10011000012001F05DF96846042101704670847089
:1001200001F048FA0121102001F0F7F906B070BD86
:10013000F8B584B00121112001F062F8684601F0A1
:100140002BF9042400946D462C710126AE71002712
:100150006F71684601F0B8F8082000902C7168466D
:1001600001F0B2F800962C71684601F0ADF802205B
:100170000090062028716E71684601F0A5F80220F3
:1001800001F013F902A801F091FA02A807700F21FB
:1001900041708770C6703948039002A801F05FFA79
:1001A00001F0B5FA01F0ABFAFF2001F0C8FA002027
:1001B00001F0BDFA012001F083FA05B0F0BDF2B5FF
:1001C00004001700022001F0F3F8002517E00120D9
:1001D00001F08CFA0028FAD06E00A05B01F07CFAE6
:1001E000042001F083FA0028FAD001F078FA00998F
:1001F0008853102001F07AFA0128FAD06D1CBD4214
:10020000E5DB022001F0D1F8F1BD7FB506000C005E
:100210000121012000F0F4FF1020029002A8052126
:10022000017100258571457101F04EF80121C02052
:10023000400100F0E5FF684601F0E7FA6846057006
:100240001F21C1700121817041708680C4800C4CD7
:100250000021200001F0E1FA200001F089FA69464E
:10026000200001F08DFA01220821200001F0FCFAA3
:1002700001220021200001F0DAFA7FBD40420F0088
:100280000000D040E0B50121012000F0B9FF80203E
:10029000C001009068460621017101218171002191
:1002A000417101F011F807BDE0B50121012000F016
:1002B000A7FF60200090684606210171012181712D
:1002C0000021417101F000F8402001F06EF820207B
:1002D00001F06BF807BDE0B5202100910021002856
:1002E00000D006206A46107191715171684600F085
:1002F000EBFF07BD81B00520694602E06846008833
:10030000401E0880684600880028F7D101B0704779
:1003100080B5202001F049F8FFF7ECFF402001F004
:1003200044F8FFF7E7FF202001F042F8FFF7E2FF73
:10033000402001F03DF8FFF7DDFF002002BD80B551
:10034000202001F035F8FFF7D5FF402001F02DF80F
:10035000FFF7D0FF202001F028F8FFF7CBFF01BD09
:1003600038B504000825402001F022F8FFF7C2FF4D
:10037000200603D5202001F018F802E0202001F02B
:1003800017F86400FFF7B6FF402001F00EF8FFF702
:10039000B1FF6D1EE7D1402001F00AF800240020D3
:1003A000FFF799FF202001F000F8FFF7A3FF40209E
:1003B00000F0FBFFFFF79EFF202000F0F3FF002876
:1003C0000AD028006D1C80B26528F3DB402000F0C5
:1003D000EFFFFFF7B4FF07E0202000F0E3FF002865
:1003E00006D0402000F0E4FF0620FFF774FF06E08F
:1003F000402000F0DDFF0620FFF76DFF0124200004
:1004000032BD70B504000020FFF765FF202000F02A
:10041000CCFF402000F0CCFF00250826402000F053
:10042000C4FFFFF767FF6D00202000F0BBFF00282E
:1004300002D0280001250543402000F0B9FFFFF756
:1004400059FF761EEAD1002C03D0202000F0B0FF27
:1004500002E0202000F0A9FFFFF74CFF402000F051
:10046000A4FFFFF747FF402000F0A2FFFFF742FF85
:100470000620FFF730FFE8B270BDF4B56A46127887
:10048000002A35D0032604000F001D003000461E50
:1004900000062FD0FFF73CFF0028F7D12000FFF720
:1004A0005FFF0028F2D03800FFF75AFFFFF747FF41
:1004B000FFF720FFFFF71EFFFFF71CFFFFF728FFE6
:1004C00001202043FFF74CFF00266846047805E032
:1004D0000120FFF796FF28706D1C761CF0B2611E9C
:1004E0008842F5DB0020FFF78CFF2870FFF727FF1D
:1004F0000020F2BD0120F2BDF4B56A461278002A50
:1005000021D0032607000C001D00FFF701FF002883
:10051000FBD13800FFF724FF002804D1761E3006F7
:10052000F3D10120F2BD2000FFF71AFF0026684634
:10053000047803E0285CFFF713FF761CF0B2A042BA
:10054000F8D3FFF7FCFE0020F2BD38B5040001F03F
:10055000AAF9050001F0A7F9401BA042FAD331BD6A
:1005600038B590B0002200236C4602E0C55CE5542B
:100570005B1C8B42FADB625449A1684601F09EF98C
:10058000002801D1012088E048A1684601F096F9D1
:10059000002801D1022080E047A1684601F08EF9D1
:1005A000002801D1032078E047A1684601F086F9D0
:1005B000002801D1042070E048A1684601F07EF9CE
:1005C000002801D1052068E048A1684601F076F9CD
:1005D000002801D1062060E048A1684601F06EF9CC
:1005E000002801D1072058E048A1684601F066F9CB
:1005F000002801D1082050E048A1684601F05EF9CA
:10060000002801D1092048E048A1684601F056F9C8
:10061000002801D10A2040E04AA1684601F04EF9C5
:10062000002801D10B2038E04CA1684601F046F9C2
:10063000002801D10C2030E04EA1684601F03EF9BF
:10064000002801D10D2028E050A1684601F036F9BC
:10065000002801D10E2020E04FA1684601F02EF9BC
:10066000002801D10F2018E04FA1684601F026F9BB
:10067000002801D1102010E04FA1684601F01EF9BA
:10068000002801D1112008E04FA1684601F016F9B9
:10069000002801D1122000E0002011B030BD000080
:1006A00067657453657269616C0D00006765744D10
:1006B0006F64656C0D00000067657450756D705453
:1006C000696D650D0000000067657450756D70659B
:1006D00064566F6C756D650D0000000067657446AB
:1006E00069726D776172650D000000006765745571
:1006F0006E69744E616D650D000000006765744899
:100700005756657273696F6E0D00000075706461F5
:1007100074654669726D776172650D007365745515
:100720006E69744E616D650D00000000676574545C
:100730007269676765724C6174636853746174654C
:100740000D000000736574547269676765724C61CF
:1007500074636853746174650D00000067657454B8
:100760007269676765724C617463684D6F64650D8B
:1007700000000000736574547269676765724C61AC
:100780007463684D6F64650D0000000072657365E9
:100790007450756D700D000067657450756D705301
:1007A000746174650D000000676574455356537499
:1007B0006174650D00000000676574466C6F7752C8
:1007C0006174650D000000006765744261747465B2
:1007D00072794C6576656C0D00000000F8B5C2B00A
:1007E000A020000222A908800B2202A922A8FFF75C
:1007F000E6FC2F4CFF20000402A94A8812040240A4
:100800008B88D21862600A89CB881B02150A5B1993
:10081000A360120402404B89D218E260CA898B8916
:100820001B02150A5B19236112041040098A401843
:10083000606100250026B00027187868802109042F
:10084000884201D37D6004E0A021490001F059F8FD
:100850007860761C042EEEDD2078802812D101F01D
:1008600022F801000AA001F0A3F860690190206954
:100870000090E368A26861680E4801F099F80EA044
:1008800001F096F82078401C207043B0F0BD0000C5
:10089000253038783A20000000B501004843E121B6
:1008A00009014843054901F029F80549401800BDF0
:1008B00088050020B81D05100D000000102700005D
:1008C00090330000F0B5A1B0002005900390012006
:1008D0006946487100208871087006900490109055
:1008E0000F900290984809AC0178217041786170AE
:1008F0008178A170C178E1700179217141796171CC
:100900008179A171C079E07101F0C4F900F0BBFFF9
:10091000FFF7D6FBFFF70CFCFFF7C6FCFFF7B2FCB6
:100920008A49FA208000FFF770FC0121C14800F0DD
:1009300074FF0D2000F0FBFD0A2000F0F8FDBE481A
:1009400001F036F80025BD4E615D300001F030F851
:100950006D1C072DF8DDBAA001F02AF8B94801F0A6
:1009600017FA002804D00100B74801F021F8FEE78B
:10097000B649B74801F01CF801F02CFA089000289D
:1009800004D00146B34801F013F8FEE7B24801F085
:100990000FF8C64801F00CF800F0C4FA00F0E3FAD2
:1009A00000F022FB00F070FBC14801F001F8FFF7F6
:1009B00015FFC0484468069EF0B2FFF76DFF844201
:1009C00002D3761C642EF7D307943100BA4800F0A6
:1009D000EFFF0BAC03E00C21B84801F01BFB01F06A
:1009E00083FB01F0C3FAB648056800F0E0FAF02195
:1009F00081430691084669468979884243D0684612
:100A00004179012048400699102928D0202917D083
:100A100040290ED0802902D0A02914D022E00598C8
:100A20000399014309061DD101200390694608700E
:100A300018E005980121414005910599A1480BE076
:100A40006946487105E0694648716846407900F09A
:100A50005BFB684641799C4800F0AAFF02E09B4896
:100A600000F0A6FF0698000607D40398002804D0DB
:100A70000020039001206946087006986946887135
:100A80006420FFF762FD68460078002847D003988D
:100A9000002822D070424000C821C90040188C496B
:100AA000091A89B280B2FFF7B0FB3220FFF74DFD83
:100AB0000121604800F0B1FE96204000FFF745FD9F
:100AC0006846407900F020FB012000F0F0FA012098
:100AD000039000F0E8FE0F901EE0FA27BF001B49CC
:100AE0003800FFF792FB3220FFF72FFD012151481C
:100AF00000F093FE002000F007FB002000F0D7FA82
:100B00000299009100F0CFFE0F99401A390000F0D1
:100B1000F8FE009908180290002069460870FFF757
:100B20005DFE07980102081A624949684018000AE8
:100B30000790701E06900398002809D0F0B2FFF7C6
:100B4000ABFE0799643107E0F4070010384A000053
:100B5000F0B2FFF7A1FE0799814202D2002E00D029
:100B6000069EFF2020700A2E01D9FE2020701A2E2A
:100B700001D3FC202070322E01D9F82020704C2E99
:100B800001D3F020207005980028207805D0400679
:100B9000400E40210143217004E0BF21014080202C
:100BA00008432070684640790028207803D0EF2160
:100BB0000140202002E0DF21014010200843207086
:100BC0000498FF21F63188420BDB20782021014375
:100BD00021700807000F0F2803D10846FE210140AD
:100BE00021700BAB01220221E820FFF785FC08A948
:100BF000087001200540217802D001220A4301E05B
:100C0000FE220A4022700499874A914202DB217831
:100C1000084320700BAB01220321E820FFF76CFC96
:100C200008A9087004988149884217DB00200490C5
:100C300019E000BF0000D040141205102812051062
:100C40000A0D0000840E0510880D051030120510E5
:100C5000BC0D0510F40D051038120510401C80B2B3
:100C60000028049017D100F08FFA050000F01BFE59
:100C70000100029F6E486843109A891A00F041FEF5
:100C800001003B003200D54800F092FE00F056FA19
:100C900000F009FE109001A911A801F0D6F9002872
:100CA00072D000270025CEA0069019E0541205103E
:100CB000701205108805002088120510D01205104A
:100CC00064000020A0120510BC1205101C0E0510B7
:100CD000204E000011A8415D069800F069FE6D1CD1
:100CE000684600798542F5DBBEA000F061FE6846EB
:100CF000017911A8FFF734FC010000BF4DA000F0FE
:100D000057FE0D256846017911A8FFF729FC401E02
:100D1000112839D801A14000095E8F44B8FC220097
:100D20002A006C0072007A00820092008A00920011
:100D30009200920092009A00A200B600CE00D60067
:100D40000A2100BF41A048E620270298642804D960
:100D5000642100F0D6FD303000E0202020700298A1
:100D60000A2805D902980A2100F0CBFD0700303788
:100D7000677002980A2100F0C4FD3031A170E5705F
:100D800004210BA801F046F929E60A2132A024E645
:100D90000A2100BF33A020E60C2100BF34A01CE6CE
:100DA0000A2100BF36A018E60F2100BF37A014E6C5
:100DB000122100BF39A010E6029710213CA00CE6DA
:100DC0000398002802D011213EA006E6122100BFA0
:100DD00041A002E668464079002803D0102100BFF8
:100DE00043A0FAE5112100BF46A0F6E5092100BFA6
:100DF00049A0F2E52020642E01D1312100E020211C
:100E000021700A2E04D930000A2100F07AFD30301A
:100E1000607030000A2100F074FD3031A17025208F
:100E2000E07025710521ACE721030000E903000013
:100E300060EA0000526563656976656420436F6D02
:100E40006D616E64203A25642E0A0D0056323032F0
:100E5000302D5345500D0000303738313936353498
:100E6000300D00003030303030303030310D000087
:100E700047686F73744275737465720D00000000EB
:100E8000416C706861303030310D000041636B534C
:100E90006574556E69744E616D650D00556E6465BF
:100EA0007220446576656C6F706D656E740D000020
:100EB00050756D702054696D652052657365740DB1
:100EC0000000000057617465722050756D702069D4
:100ED00073206F6E2E0A0D00576174657220507575
:100EE0006D70206973206F66662E0A0D0000000089
:100EF00045535620697320656E61626C652E0A0D3C
:100F000000000000455356206973206469736162D4
:100F10006C652E0A0D000000303030303132333431
:100F20000D0000001CB56C46FF2020706B460122AE
:100F30000621EE20FFF7E0FA0F2020706B46012219
:100F40000721EE20FFF7D8FA002020806B4602220E
:100F50000221EE20FFF7D0FA6B4602220321EE2099
:100F6000FFF7CAFA16BD38B500206C4620806B46E4
:100F700001220621E820FFF7BFFAF02020706B461F
:100F800001220721E820FFF7B7FAFF2525706570D9
:100F90006B4601220221E820FFF7AEFA257065704A
:100FA0006B4601220221E820FFF7A6FA32BD80B588
:100FB0006B4601220121E820FFF75FFA69460978B4
:100FC000F0220A4069460A70012804D1874800F0DF
:100FD000EFFCFFF7C8FF6846007802BD400E051021
:100FE000256300000A0D0000DFB58149FA20C0002A
:100FF000FFF70BF900217F4800F00FFCFA204000BA
:10100000FFF7A3FA8020694608706B46012203218E
:10101000EE20FFF771FA0024072720003840012155
:101020008140C843694608706B4601220221E820CE
:10103000FFF762FAC820FFF788FA641C082CECDB83
:101040006D49FA208000FFF7E0F86420FFF77DFA91
:101050000121684800F0E1FB002420003840012114
:101060008140C843694608706B4601220221E8208E
:10107000FFF742FA0600C820FFF767FA641C082C45
:10108000EBDB300004B0D0BD10B588B004AC0E214D
:10109000A01C01F07DF8112020800822694604A8D8
:1010A000FFF78DF80A20FFF750FA08B010BD80B5A1
:1010B00001008020C001012902D100F076F901E091
:1010C00000F076F96B4601220321EE20FFF7D5F9F7
:1010D0006846007840210143684601706B46012252
:1010E0000321EE20FFF708FA6420FFF72EFA684686
:1010F0000078BF210140684601706B460122032140
:10110000EE20FFF7F9F901BD1CB504006B46012282
:101110000321EE20FFF7B1F9012C6846007802D1D7
:101120002021014301E0DF210140684601706B4648
:1011300001220321EE20FFF7DFF913BD80B56B46D6
:1011400001220321EE20FFF798F96846007810216C
:101150000143684601706B4601220321EE20FFF730
:10116000CBF90A20FFF7F1F968460078EF2101403A
:10117000684601706B4601220321EE20FFF7BCF99F
:101180000A20FFF7E2F901BD1CB56B4601220021E0
:10119000EE20FFF772F9684604786B4601220121C0
:1011A000EE20FFF76AF9684600780002F021090195
:1011B0000140601880B216BD10B5102000F0C8F9CB
:1011C000002811D0102000F0CCF900200B4C414237
:1011D00061188A7BCA73401C0F28F8DD00F0ACF957
:1011E0002070207800F0A3F910BD0000F021051058
:1011F000504600000000D040384A00001C0000208B
:101200002D4A0129116802D10843106070478143BB
:10121000116070472948007829490988002821D1A0
:101220000A00093A792A21D209220A40092A01D161
:101230000620704711220A40112A01D10720704769
:1012400021220A40212A01D10820704741220A4068
:10125000412A01D10920704781220A40812A05D103
:101260000A20704702281CD101207047FF22921CDF
:1012700013000B40934201D10B207047114A130019
:101280000B40934201D10C20704705220A40052AE9
:1012900001D1052070478907890F032901D1042056
:1012A0007047042801D102207047082801D103208B
:1012B00070470020704700002000904008009040D8
:1012C0000800104801040000F0B504792200002154
:1012D0003C4B002C04D11C680568AC431C6006E044
:1012E000062C04D100221C68056825431D60056892
:1012F000CD40ED0738D5082909DA8D009E6A0F2701
:10130000AF40BE431700AF4037439F622CE00D0053
:10131000083D082D0BD20D00083DAD00DE6A0F27F9
:10132000AF40BE431700AF403743DF621CE00D0003
:10133000103D082D0BD20D00103DAD001E6B0F2788
:10134000AF40BE431700AF4037431F630CE018297E
:101350000ADB0D00183DAD009E8E0F27AF40BE4347
:101360001700AF4037439F86491C1A29BFDB01682D
:101370004279012A9A6802D11143996001E08A43B7
:101380009A60016880790128586802D10143596048
:10139000F0BD88435860F0BD00210160017181718A
:1013A000417170478021C90505E007490860704711
:1013B0000649086070470968084000D00120C0B2A3
:1013C00070470000040000403C0000404000004026
:1013D0006B490028086803D0012202430A60704765
:1013E0000122904308607047F0B504002168012590
:1013F000644E65487269D2082A4001D1090100E0B3
:10140000C90000F07EFAC10931810904490A401A75
:10141000401C400881B23F2902DD3F388006800E23
:10142000307360209F21327C0A4023795B010340A6
:1014300013433374327811406279520110400843EB
:1014400030700821F720327C0240A379DB000827A6
:101450001F401743377432781040A279D2001140F0
:1014600001433170E179002907D1FD20317C014031
:1014700031743178084030701CE002200229317C40
:101480000BD101433174FB21327C0A403274327833
:1014900010433070307801400BE001433174042177
:1014A000327C042313433374327810433070307825
:1014B00001433170706935490140207A284040026B
:1014C00008437061706932490140207A4008284021
:1014D00000020843706170692E490140607A28401B
:1014E00080030843706170692B490140607A4008AD
:1014F0000540E803084370611020EF21327C0A4068
:10150000A37A1B0103401343337432781140A27A4B
:101510001201104008433070F0BD204A00291188A4
:1015200002D0084310807047814311807047C00586
:10153000C00D1B490880704719480088C0B2704729
:1015400001001848002901D5006800E0808A02E007
:101550000100154800880140080000D00120C0B2F9
:10156000704712490880704711490A78C723134011
:10157000C0003822FFE702401A430A70704700009B
:10158000300030401C0030400000127AFFFDFFFFA9
:10159000FFFEFFFFFFBFFFFFFF7FFFFF3800304070
:1015A00000003040040030403C00304044003040F7
:1015B00034003040F0B502781F23012481780029DF
:1015C00021D0417852B2D50018262E40FF27B740CF
:1015D000FD438907090EB140160004D50D4A3607B0
:1015E000360F083E00E00C4AB608B600921916689D
:1015F000354029431160007803409C400749400969
:1016000080000C50F0BD13409C40054851098900F2
:101610004450F0BD1CED00E000E400E000E100E01B
:1016200080E100E030B50100012502244548490071
:1016300000F067F9002808D04349884205D201E04C
:1016400064004008FF28FBD8451E40480474016828
:101650003F4A0A402D06290C1143016030BD10B5E8
:1016600004006068FFF7DEFF2178384842680423F1
:101670009A438900194011434160A17802684023D0
:101680009A438901194011430160E178026880237F
:101690009A43C901194011430160617802681F2310
:1016A0009A43C906C90E1143016010BD01210170A2
:1016B0000721417000218170C17026494160704747
:1016C00025490028086803D0022202430A607047B7
:1016D00002229043086070472049086070471F4805
:1016E0000068704702401A430A60704701001C48B6
:1016F000FFE700780140080000D00120704717483C
:1017000000E0016801798908C907FAD470471548D3
:10171000017802220A43027000E0C168104909788A
:10172000C907FAD50178FD220A40027070470749BF
:101730000A680D4B1340C005C0225204D2E70B4982
:10174000086070470024F40001FE000000004040E3
:10175000FF00FFFF40420F000400404008004040EF
:101760000C00404080004040FFFF7FFE2C004040C6
:1017700000210174017501830F21202281547047DB
:1017800070B5028B334B13400383028B324B1340F3
:101790000383F822037D13400375C723047D1C4097
:1017A00004750D782D4C802D07D1058B2C400483BA
:1017B000048B80256D00254308E0068B3440AD077F
:1017C000AD0F25430583048B254D25400583CC783B
:1017D0000474048B8025254305838C888480CC8801
:1017E0000481048B1F4D25400583047D22404C78E5
:1017F0006407640F14430475027D13408978C9009F
:1018000038220A401A43027570BD00214170817070
:101810008180C1800170C17070470129018B02D1A4
:1018200080220A4301E00F4A0A40028370470B00FE
:1018300005D1018B074B0B401101102206E0012955
:1018400007D1018B044B0B40510120221140194359
:1018500001837047EFFF0000DFFF0000FCFF000086
:10186000FFFE00007FFF00000901012A027F02D174
:101870001143017770478A43027770470B4801682C
:10188000491C016070470A480A4941600A490A68D0
:101890001202120AC0231B0613430B600021816051
:1018A000072101607047014800687047A4050020C7
:1018B00010E000E0FE7C000020ED00E002780B78F4
:1018C000002A03D0401C491C9A42F7D0D01A704716
:1018D000F446002804D4494200F013F8404260471F
:1018E0004042002905D45FD000F00BF84042494245
:1018F0006047494200F005F84942604703460B4300
:10190000E6D40022030A8B420BD203098B4219D280
:1019100043088B422ED2411A00D201465241104652
:101920007047FF2209023FD012068B4205D31212E4
:1019300009028B4201D31212090203098B4219D307
:1019400000E0090AC3098B4201D3CB01C01A5241FE
:1019500083098B4201D38B01C01A524143098B4248
:1019600001D34B01C01A524103098B4201D30B0131
:10197000C01A5241C3088B4201D3CB00C01A524156
:1019800083088B4201D38B00C01A524143088B421B
:1019900001D34B00C01A5241884200D3401A524131
:1019A000CFD201461046704708B500F019FC08BDBB
:1019B0000EB4C0B5020003A801900020009001AB56
:1019C0000121044878440C3000F00CFC029906B068
:1019D000084700BFE70D010010B5C20018231340EF
:1019E000FF249C40E2438907090E9940030004D577
:1019F00059481B071B0F083B00E0A0489B089B00B1
:101A0000C01803681A401143016010BDFEB50124DF
:101A10005248017801220A430270002650480660AD
:101A20000325FFF7F7FB6946087068460078002831
:101A300001D16D1EF5D16846007806282FDB684677
:101A4000007801250B2825D0684601F0F5FB684693
:101A50004178090180780843122800DA0025884877
:101A60000068000705D4002D14D0012000F05BF8B9
:101A700010E0844FF868844E3168081A2838000254
:101A80000012002806DD002D02D0012000F04BF8E6
:101A9000306838607D48047001F02BFCFEE70120BF
:101AA000FEBD10B500220021A64804E00B00415CF9
:101AB0005918491CC9B2435C002BF7D1CB1C202B11
:101AC00012DA022343542123441863700823A370BD
:101AD0004318DA709C4A80235B02401880B2184396
:101AE000106010681840FCD110BD70B500210023B3
:101AF000944A04E01C00D35CE3185B1CDBB2D45CAA
:101B0000002CF7D102253524DE1C202E05DAD55411
:101B1000D6187470B070D218D1708C4A1570547089
:101B20009070D17070BD70B580214902874B9CB216
:101B30000C43854A002804D01460106808400AD07D
:101B4000FBE798789D78FB262E409E701460146801
:101B50000C40FCD1987070BD1CED00E008002040E6
:101B600014000020F3B58BB003A800BF81A11C2294
:101B700001F0E4FB684601F05FFB734C01250BA804
:101B80000078002858D003A84421817370490A784E
:101B9000012313430B704C21C17220210172B22129
:101BA00041745B2101756B498B6B6B4A1E0C96422D
:101BB00009D1C67D8F273740C775C67D1B017027A9
:101BC0001F403743C7754B6B1E0C964209D14679AF
:101BD000CF273740477146791B0130271F403743D5
:101BE000477109680B0C934208D1C27DFC23134056
:101BF000C375C27D8907890F1143C175C17AFB2264
:101C00000A40C27269464A7812018E781643112E34
:101C100006DDC17D04220A43C275C07DFFF765FF62
:101C2000280403A989B20143216021680140FCD145
:101C3000112E01DDFFF735FF154988890028FBD0FB
:101C40000CA800788D8117220A8000224A600028A3
:101C500007D06068102162680A40102303409A424E
:101C6000F9D00BA80078002802D015203B49087055
:101C70003B483C4908600DB0F0BD000000E400E0C6
:101C8000C000002004000048180000200C000020C4
:101C90000C00104880B5082033490880032101203A
:101CA000C043FFF799FE03210020C043FFF794FED5
:101CB00003210020FFF790FE03210120FFF78CFE97
:101CC00003210420FFF788FE03210520FFF784FE8F
:101CD00000210620FFF780FE03210720FFF77CFE8E
:101CE00003210D20FFF778FE03210E20FFF774FE7D
:101CF00003210F20FFF770FE03211120FFF76CFE78
:101D000003211220FFF768FE03211320FFF764FE72
:101D100003211420FFF760FE03211520FFF75CFE6E
:101D200003211620FFF758FE03211720FFF754FE6A
:101D300001210120FFF716FF0C480D49086062B62B
:101D400001BD0000680500200C000048B400002020
:101D500008002040B007001055AA00000000C04055
:101D6000CCBCECFC140000200400104066000E0007
:101D700020009040023F00023E30023C20023B6CBB
:101D8000023A440239B202341B02350B021C5300E2
:101D900010B5837F0122002492024168082B03D9E9
:101DA0004224914202D310E0914201D242240CE03D
:101DB00001463422064801F0E8FA01F0FBFA002857
:101DC00001DA482401E001F035FB204610BD000097
:101DD0000C05002038B58AB008A800BFB2A10CC914
:101DE0000CC006A8B2A10CC90CC006AA062100208E
:101DF00001F094FB05009F4C02D02900200046E032
:101E00000721012001F08EFB01F090FB050003D0BB
:101E10002900200024303AE020004830FFF7C8FDB8
:101E200005A8019004A8009004AB9B1C0822002187
:101E3000012001F07FFB050003D02900200078304D
:101E400025E020009C30FFF7B3FD08A80390082090
:101E50000290002001900820009001236846028A29
:101E6000418A002001F07EFB050003D029002000FC
:101E7000CC300CE0802040002018FFF799FD01F0E5
:101E800083FB050007D02900982040002018FFF7A9
:101E90008FFD280005E0AA2040002018FFF788FDEC
:101EA00000200BB030BD7FB5734DA868400603D548
:101EB0002026A868304003D07FBDA8880019A880DC
:101EC0006888A98881421AD2441A152C00DB142490
:101ED0006A4840180390E0B2029000200190A0B23E
:101EE000009001236648028866480188288801F02E
:101EF00039FB6428E1D1A8680643AE607FBDA868BD
:101F000040218843A8600020688010205E49086056
:101F10007FBD000000B58BB007A800BF66A11022EE
:101F200001F00CFA0021002001F0BAFBFA22920025
:101F300006926420059000200490039007A8029068
:101F40000F200190002000900023642101F0B3FBDA
:101F50004E4A002804D001001000FFF729FD03E0DD
:101F600010003030FFF724FD0BB000BD10B5424C1F
:101F7000A068800705D5FFF7CDFFA0680221884340
:101F8000A060FFF790FF10BD3B48018081680122EF
:101F90000A4382607047384881680122914381601A
:101FA000816802220A438260816804229143816031
:101FB00081682022914381608168354A0A408260AD
:101FC0008168344A0A4082608168334A0A408260EC
:101FD0008168324A0A408260704738B508001C00A8
:101FE000049D2A00210001F02BFB402C09DA00217E
:101FF0002B4A02E06B5C5354491CA142FADB29488E
:10200000047031BD1C488168202291438160704773
:102010007047704770B5184A9368DB0710D50023E6
:102020000024164D02E0065D2E55641C8C42FADB3E
:10203000518093809068402101439160002070BDE1
:1020400021A0FFF7B5FC012070BDF8B5154A137843
:102050006C462370002B09D000240026104DAF5D84
:102060008755761C9E42FADB0B7014706846007828
:10207000F2BD00002C0A05105C000020CC020020FC
:10208000420500204005002000E100E0781905101D
:10209000FFFEFFFFFFFDFFFFFFFBFFFFFFF7FFFF5F
:1020A000CC040020B8050020426C75654E524730C4
:1020B000AA0000E1800000000947686F7374427550
:1020C000737465725F56310053656E642045727299
:1020D0006F723A20424C45206E6F7420436F6E6ED3
:1020E0006563746564210D0010B501F005FB1E4C9D
:1020F0004721206849014118097B002909D1A030F6
:102100000079C00729D001F085FB01F0BBFB01F08D
:10211000C7FB01F04BFC2068014640310A78C979C1
:102120008A4319D13E21095C002915D10F490A883B
:10213000120711D50922D2061269497A836AC900A9
:10214000591809231B02C018806D801A0002001262
:10215000814201DA01F08CFC10BD01F035FD01F087
:1021600053FD01F01FFED0E7B0000020C0000020AA
:102170001206130A1A43130C1A4300BF094205D072
:10218000830709D00270401C491EF9D17047000036
:102190000022F3E70022FFE71300103906D330B422
:1021A0001400150010393CC0FCD230BC490700D3E4
:1021B0000CC000D504C0890002D30280801C002915
:1021C00000D5027070470C0802170D0101020909C1
:1021D0000101060209FFFFFFFFFF0909FFFFFFFFE3
:1021E00070477047FDB5B2B03A98049102A93B22FE
:1021F000885400200D9026A8401C31900DE00498D2
:10220000329A90470490002801D100F02FFF0D98DA
:10221000401C0D903398401C33903398017800296E
:1022200010D02529EBD100200790089009900A9042
:102230000B900C9000210224012013900820129092
:10224000339D05E00D9800F013FF0800139901433A
:102250006D1C28782028F8D023280BD02B2804D0F8
:102260002D2804D0302808D00AE02143F0E70800E8
:102270000421ECE708000821E9E708001021E6E75F
:102280002A280FD1349802681068121D349B1A60F6
:102290000F90002804D542420F9208000421014308
:1022A0006D1C12E000200F90654A09E00F9B9342DD
:1022B00005DA9E00F3185B00181830380F906D1C7B
:1022C00028780300303B0A2BF0D328782E2803D03F
:1022D0000020C0430E9027E06D1C28782A2808D1E2
:1022E000349800680268001D349B18600E926D1CC3
:1022F0001AE02D2802D12D226D1C00E000220020C2
:102300000E900CE0002A09D10E9B4D4EB34205DA27
:102310009E00F3185B00181830380E906D1C28785A
:102320000300303B0A2BEDD302A801872E78310041
:1023300041487844FF30C01C01F0F6FD002801D070
:102340006D1C00E0002602A83A214654405C682833
:1023500004D1287868280BD1622005E06C2807D1C9
:1023600028786C2804D1712002A93A2288546D1C67
:1023700017A80690287869460870681C339068464C
:1023800002781000253833D01C3800D10EE2001F2F
:10239000022800D80AE2133801D100F08BFD093879
:1023A00000D103E2801E01D100F021FE401E01D1C8
:1023B00000F0CEFD401E022800D8F7E1001F01D139
:1023C00000F0C6FD401F00D149E1401E01D100F0E0
:1023D00071FD401E00D1EBE0C01E10D0801E01D167
:1023E00000F068FDC01E01D100F064FD00F00AFE9F
:1023F000252017A908701398079000F00EFE349856
:1024000000680468001D349908600594002C00D011
:10241000BAE002A83B21405C002800D1ADE00024D6
:10242000E44306487844143001F088FD201A01D0B6
:1024300000F01CFE00F0F1FD38F300006CF300002A
:10244000CBCCCC0C641E01D000F006FE3295079D6B
:1024500017AC002D0FD0329E227802A9300000F078
:10246000BFFE002802D4641C6D1EF5D132960028F0
:1024700001D000F0FBFD3020694608700A9C002C5A
:102480000DDD329D01236A4602A9280000F0B9FE45
:10249000002801D000F0EAFD641EF3D13295059CBE
:1024A000089D002D0FD0329E227802A9300000F046
:1024B00097FE002802D4641C6D1EF5D132960028C8
:1024C00001D000F0D3FD302769460F700B9C002C23
:1024D0000DDD329D01236A4602A9280000F091FE1D
:1024E000002801D000F0C2FD641EF3D1329505989A
:1024F00008994418099D002D0FD0329E227802A918
:10250000300000F06DFE002802D4641C6D1EF5D171
:102510003296002801D000F0A9FD684607700C9C97
:10252000002C0DDD329D01236A4602A9280000F02F
:1025300068FE002801D000F099FD641EF3D13295A9
:1025400002A83821405C400700D466E62020694696
:1025500008700198002800DC5FE6019C329D012391
:102560006A4602A9280000F04CFE002801D000F0C5
:102570007DFD641EF3D132954FE63F487844FF302D
:10258000C01F059000F049FD0E9D002D03D52000D1
:1025900001F0F8FC09E02A000021200001F0FAFC1B
:1025A000002801D0001B00E02800089000F035FD55
:1025B000349800680268001D349908600020C04308
:1025C0000021104002AA03C217A80590069A3C23D6
:1025D00002A803C8002904D1002802D10E9C002CB7
:1025E00013D05B1E05072D0F3035EEB23A2E00DBFF
:1025F0002735D55400090C072043090901D10028CB
:1026000003D0059CD518AC42EBD33C20C01A0890EF
:10261000D11805910E99884208DA081A0A9002A882
:10262000018FB84A0A40028700F0F7FC002901D464
:1026300000F0F3FC02A93822895C14220A40102A17
:1026400001D000F0EAFC0F99079A891A0A9A891AB0
:10265000081A002801DC00F0E0FC00F029FC02A8C8
:102660003B21415C002909D00024E4434B487844D5
:10267000FF302B30D8E600BF4CF100003A21405C1F
:1026800062286AD0682819D06A2845D06C2806D0FC
:1026900071284FD0742831D07A2821D06FE0349837
:1026A00000680168001D349A106000297AD1002466
:1026B000E4433B487844FF301738B5E63498006867
:1026C0000168001D349A1060002905D10024E443FC
:1026D00033487844CA30A7E60D98088000F09DFC86
:1026E000349800680168001D349A1060002959D19F
:1026F0000024E4432A487844A63095E634980068DC
:102700000168001D349A106000294BD10024E44375
:10271000234878448A3087E6349800680268001DB0
:1027200034990860002A13D10024E4431C487844FB
:102730006E3079E6349800680268001D34990860AC
:10274000002A05D10024E4431548784452306BE652
:102750000D98C11703C200F060FC3498006801684E
:10276000001D349A1060002905D10024E4430C4870
:1027700078442C3058E60D98087000F04EFC3498E0
:1027800000680168001D349A106000290AD10024F5
:10279000E44303487844083046E600BFDCEF00001D
:1027A000F0EF00000D98086000F037FC34980368E3
:1027B000DB1D072083433498036003CB349D2B60DB
:1027C00002AB03C32023C80F04D007982D2117ABF9
:1027D00019540DE002A8008F204204D007982B2145
:1027E00017AB195404E0C00704D5079817A90B5478
:1027F000401C079017A807994318059326AC02A818
:1028000003C814AD03C5684600782021014368461B
:102810008170612909D00E98002801D5062003E0B7
:1028200003D1672901D113980E9002A803C80800AC
:1028300041004915491C10D100030ED00320089017
:10284000613A1A2A04D251497944FF31413116E0E4
:102850004F497944FF313B3111E002A803C8080019
:1028600041004915491C0FD100030DD103200890E8
:10287000613A1A2A15D347497944FF3119310322A5
:10288000180000F075FDC8E302A80CC8BAA003C880
:102890001940002680277F03B94207D20020594003
:1028A0000DE03D497944FF310F39E8E7080DB04E9E
:1028B000361810001900B24B0B40AE49194302AA5A
:1028C00003C26846807861280FD1059830210170D5
:1028D000811C059169460978612901D1782100E0C0
:1028E000582141700798801C079002A803C8A2A233
:1028F0000CCA02400B4007D1002A05D10026002552
:1029000081E100BFEFFF000068468078612800D0B9
:10291000B9E00E98002801D5212000E0401C169057
:10292000169F7F1C14A803C80022002301F03DFB62
:1029300002A830C802D2802000064540361F01960A
:1029400026A90A7026A8461C002F54DD2000290065
:10295000002280235B0301F041FB4CD869004A0D43
:1029600011001C31002A19D0002917DDAF4A91420D
:1029700006DB10052900802212061140014311E0F8
:102980007F4A2A400805104305000DE03CEE000098
:102990003CEE000040EE000038EE000029008022EE
:1029A0001206114000240D002000290001F030FB28
:1029B0001490FF1F002F09DD01F064FB02000B00E3
:1029C0002000290001F0C5FB04000D00F01D0721C7
:1029D000149A002A0ADD491E08D4401E13071B0F53
:1029E00003701211F5E7401E00220270491EFAD54D
:1029F000C61D002FAADC26A83199711A26AA541CDC
:102A0000169A0E00914200DD1600002E34D48E423C
:102A100005DA411C895D082901DB0F2100E0002156
:102A2000320026AB9B1801E0761E5B1E521E1D78FD
:102A30008D42F9D00F2904D1411C895C491C401CEE
:102A40008154002A04D526AC761C0198001D019003
:102A5000711E11D462186846007813783033DDB2E5
:102A60003A2D02DB05003A3D5B191370491E521ED8
:102A70000029F2D5694608700E98002800D4C1E0FC
:102A8000701E0E90BEE014A830C86D006D08694934
:102A9000300048436849FEF731FF01900720019953
:102AA000401A05DD02002000290000F073FB0AE057
:102AB00042420020614900F06DFB02000B00200043
:102AC000290001F0BDFB6A469278662A02D1019A7C
:102AD0000A3200E006220E9B9A18142A00DD142206
:102AE00026AB30241C705C1C02E014A803C8169AA4
:102AF000002A47DD14AB03C3169214A803C801F0E3
:102B000099FA309006460834042530000A21FEF771
:102B1000F8FE0F0030000A21FEF7F3FE0600303702
:102B2000601E077030000A21FEF7EBFE0F00300038
:102B30000A21FEF7E6FE0600A41E303727706D1E40
:102B4000E3D108341698083816900028CDDD309867
:102B500001F088FA02000B0014A803C801F0F9FA8A
:102B60000022374B01F0CDFB14AA03C2C5E700BF1A
:102B700002FCFFFF0000E03FFFFFFFFFFFFFFF7FC2
:102B8000FFFF0F803198201A26A94C1C019902E002
:102B9000401E491E641C2278302AF9D001916946F2
:102BA0008978662902D10199491C06E0694689782D
:102BB000652901D1139900E000210E9A5618B04200
:102BC00000DA461E002E1DD4864204DAA05D3428A9
:102BD00001DD392100E030213200601E831801E060
:102BE000761E5B1E521E1D788D42F9D0392902D106
:102BF000A15C491CA154002A04D50400761C01984C
:102C0000401C0190019D68460078694648700E9FFF
:102C100030B2002803DC139E054C7C441234684615
:102C2000807866280ED16D1C26E000BFFF070000EB
:102C3000A8EB000097750000A08601000000F03F9F
:102C400084D7974168468078672846D128B2032107
:102C5000C943884247DBB84245DA6D1C02A8008FA1
:102C60001299C0B2084203D130B2B84200DA07006C
:102C700028B23F1A00D5002728B2002800DDB5E0B1
:102C80000898411C08913021059A1154002F05DC49
:102C900002A8008F1299C0B2084205D00898411CC2
:102CA00008912E21059A115428B241428F4200DA30
:102CB0007D422DB268420B907D1930B2854200DA18
:102CC0002E0036B20996320021000598089BC018E4
:102CD00000F04EFBA81B0C90D4E0684640786128B9
:102CE00018D170201BE030B2B84206DA02A9098F71
:102CF000129AC9B2114200D107007F1E00D50027E9
:102D000068464078672802D16520694607E045207B
:102D1000694604E068464078412801D15020487057
:102D20000898411C08912178059A1154611C002FC4
:102D300005DC02A8008F129AC0B2104218D0089881
:102D4000421C08922E22059B1A54002F10DD741E7F
:102D500020B2874200DA3C0022B20598089BC018D6
:102D600000F006FB24B2089800190890381B0B905D
:102D700005980899401869464978017029B20029D8
:102D800003D42B214170861C03E02D224270861C47
:102D90004D42002412A928000D0005E00A21FEF78B
:102DA000ADFD2970641C6D1C00B20028F6DC012CFE
:102DB00008DC6846407820210143652902D1302093
:102DC0003070761C002C09D130203070761C07E062
:102DD000641E12A8005D30303070761C002CF7DCC9
:102DE000059808994018301A09904BE030B229B282
:102DF00088421DDA32B221000598089BC01800F005
:102E0000B7FA36B20898801908902DB2A91B0B9119
:102E1000002F05DC02A9098F129AC9B2114205D010
:102E20002E21059A11540998401C09900C9729E00D
:102E30002AB221000598089BC01800F099FA28B220
:102E4000089909180891751B002F05DC02AA128F3A
:102E5000129BD2B21A4204D04A1C08922E22059B21
:102E60005A5429B28F4200DA3D002AB2211805983F
:102E7000089BC01800F07CFA2DB208984019089001
:102E8000781B0B9002A83821405C142101401029C6
:102E900000D0C2E00798089940180B99401809998A
:102EA00040180C9940180F99884200DBB5E0081AC9
:102EB0000A90B2E002AA3A20105C622808D0682882
:102EC0000ED06A2814D06C281DD0712810D01AE0BA
:102ED000349801680868091D349B1960C0B218E075
:102EE000349801680868091D349B196080B210E0AD
:102EF00034980368DB1D072083433498036003CBB9
:102F0000349C236006E0349801680868091D349BEE
:102F10001960002102AB03C3108F1299C0B208429E
:102F20005BD002A803C8002901D1002855D068460B
:102F300000782021014378294FD1079817A9302222
:102F40000A54401C421C07926A4612780A5444E014
:102F500002AA3A20105C622808D068280ED06A289D
:102F600014D06C281DD0712810D01AE03498016854
:102F70000868091D349B196040B218E03498016854
:102F80000868091D349B196000B210E0349803688A
:102F9000DB1D072083433498036003CB349D2B60F3
:102FA00006E0349801680868091D349B1960C11750
:102FB00002AB03C3002902DA07982D2109E0108F24
:102FC000204202D007982B2103E0C00705D50798BF
:102FD000202117AA1154401C079017A807994018E0
:102FE00005906846017802A800F044F815E01398AF
:102FF0000790349800680168001D349A106017A883
:1030000001700AE0252017A90870139807906846F8
:103010000078002801D04A7007940F980799401A49
:103020000A99401A0899401A0B99401A0999401AAE
:103030000C99401A019002A83821405C400701D544
:10304000FFF705FA2020694608700198002801DC86
:10305000FFF7FDF9019C329D01236A4602A9280071
:1030600000F0CFF8002801D1FFF7ECF90020C043B1
:1030700035B0F0BDF2B586B0040025696F2901D1E5
:10308000082707E0084620210143782901D00A27B4
:1030900000E010273C2603CC083C04AA03C26A4681
:1030A000127E642A03D06A46127E692A09D1002959
:1030B00007DA04A803C800220023121A8B4104A8CF
:1030C0000CC004A803C800290DD100280BD1206B27
:1030D000002808D1082F3BD13820205C000737D5C5
:1030E0003B26302033E00294009504A830C8761EB9
:1030F0000196200029003A00FB1701F0C4F9303294
:10310000D0B23A2803DB6846007E51381218009886
:103110008255200029003A00FB1701F0B4F90400A1
:103120000D0001D1002C05D00298C06800998919C2
:103130008842DCD3029C009D082F09D13820205CF6
:10314000000705D5A85D302802D0761E3020A8558E
:103150003C20801BA061A919E160216B884206DA3E
:10316000081A2062208F1C490140218710E00029A5
:103170000ED53821615C14220A40102A08D1616BF7
:103180006269891A226A891A081A002800DD2062F9
:1031900007B0F0BDF8B50026104F04000D000092F6
:1031A00014E0C00707D532003B002000290001F0E1
:1031B000A8F804000D00009840100090300039007D
:1031C00032003B0001F09DF806000F000098002837
:1031D000E7D120002900F4BDEFFF000000002440EB
:1031E00010B503000C001100A0689847A0600028EB
:1031F00004D0E06A401CE062002010BD0020C04303
:1032000010BDF8B50024002B11D007000E001400EB
:103210001D002178B068B847B060002809D0F06A76
:10322000401CF0620020641C6D1EF2D104002000DE
:10323000F2BD0020C043F9E70F210E4A13681B09B5
:103240000B404370136819408170D26842600121BD
:10325000094B9A4201D1022200E001220270427819
:10326000002A00D1417005490988491C8900816004
:10327000704700001C00904041A000021400104064
:103280007FB504000D0016006846FFF7D5FF6846BD
:103290000178217041782970807830707FBD704747
:1032A000EFF31482EFF30981002080F31488BFF359
:1032B0006F8FF0B543464C4655465E466746F8B4B8
:1032C000164CEFF30883236006B4154C2068154CA8
:1032D0002060154C2068154C2060154C2068154C5A
:1032E0002060154C276800202060BFF34F8F30BF4F
:1032F00027600A4C246884F3088882B003BCF8BCB9
:103300009846A146AA46B346BC46F0BC04BC80F32E
:10331000098881F31488BFF36F8F104708000020DD
:1033200004ED00E0A805002024ED00E0AC0500203D
:1033300000E200E0B00500200800204070B4103A20
:1033400003D378C9103A78C0FBD2530701D318C908
:1033500018C001D508C908C0D20704D30B88038060
:10336000891C801C002A01D50B78037070BC704743
:103370008B0701D18307E1D0124205D00B78491C9D
:103380000370401C521EF9D1704710B50400FFF7BE
:10339000EFFF200010BD10B504000800110002006E
:1033A0002000FEF7E5FE200010BD80B501F0A0F87A
:1033B00002BD704770B50025ED4301F0A8F8012863
:1033C0002ED0002318490322888BFF24401E10436F
:1033D0008A7F4D3462438218088B28246043121878
:1033E000488B3024604312180846203040782C2443
:1033F000604310180D4A181884184869A0420DD16E
:103400000B4884420AD90D6901F081F8C1B22846FF
:1034100001F080F801F0AEF9401B251A284670BD76
:10342000FF23B533CEE700000C050020391900005A
:10343000580A0000F8B50626324840250560324893
:1034400000270780A9050920C00641602F4A916026
:10345000016801602E48032104694269601E084327
:103460003946401CFFF797FF01F051F8C1B22046E2
:1034700001F050F801F07EF901F07EF901F0CEF98B
:10348000244917208881244C20684219014657702E
:10349000FA2088622820107001F0C1F9012805D1B6
:1034A00020681022403001781143017001F0B9F911
:1034B000012805D120688022403001781143017035
:1034C0002068014640300278324302700020C04339
:1034D000086601F0A9F901F0B3F901F0E3F92068F9
:1034E00001212030017707214177012001F01CFAEA
:1034F00001F03CFA00F05AFA0248803805600221D7
:103500000160F8BD80E100E0C000002040000048FC
:103510000C05002000001048B000002010B501F09C
:103520007FFA10BD10B501F0FFF910BD10B501F024
:1035300005FB10BD7CB5069D079C002805D08607BD
:1035400005D1460703D4060701D442207CBD0029DB
:1035500003D0012901D00229F7D10095019401F08F
:10356000B5FB7CBDF0B585B084460AA8F0C86846B6
:103570008581C68103A8019002970094604601F0FE
:10358000A3FC05B0F0BD704738B586B0354C1022AD
:1035900037A120000830FFF7F8FE334D00940623D2
:1035A000012221000831022001F054FE002840D100
:1035B000102200BF32A120001830FFF7E6FEA01C49
:1035C00005900120049010200390002002900190AB
:1035D000102000901423220018320221208801F0CC
:1035E00054FE002825D1102229A120001830FFF711
:1035F000CCFE201D05900120049010200390012096
:103600000290002001900C20009014232200183218
:103610000221208801F039FE00280AD161882800A3
:10362000FEF7C6F9A18828003C30FEF7C1F900205A
:1036300004E028007830FEF7BBF9472007B030BD22
:1036400008498B885B1C98420BD04988891C8842AA
:1036500007D11078012804D10448016804220A43E4
:1036600002607047400500207815051064000020B6
:10367000669A0C200008969EE2119EB1E0F273D982
:10368000669A0C200008969EE2119EB1E1F273D971
:10369000669A0C200008969EE2119EB1E2F273D960
:1036A00010B50A461F2801D9122010BD0146104648
:1036B00001F00AFE10BDFFB587B0109D159E169C47
:1036C00001930295009407A807C81F46334601F0EE
:1036D00029FE00280ED11398149903AA069443C218
:1036E0001198129901900095029107A807C83B46CE
:1036F00001F046FE0BB0F0BDF0B5002693B0701E91
:103700000E90414841490068374644180920C006D8
:10371000006905022D0A72B6A0692146281A000226
:10372000000A223101F048FE6169A561401860611C
:10373000354800684030C1798A0663D4202211439D
:10374000C17162B6256814E0A8686169401A002852
:103750000ADCBA0001A8761C85507F1CF6B2FFB2C5
:10376000287B01F041FE03E00E99884200D20E90C2
:103770002D68A542E8D12046083000250C9018306D
:10378000129018E0AF0001A8761EC159F6B220468B
:1037900001F068FE01A8C1590C9801F073FE01A860
:1037A000C059007B3A2804D2129812990078401E22
:1037B00008706D1CEDB2002EE4D12068A04217D035
:1037C0003D256D04284601F064FE01460E988142B5
:1037D00001D8284601E001F065FEA1690818000241
:1037E0000121000A0906401801F06CFE13B0F0BD7B
:1037F00072B600200449072209681202891808617C
:103800000349886062B6F1E7B0000020F4060000CA
:103810004000004870B572B6184D40232868014634
:103820004030C2791A43C27162B6154E881901F050
:1038300071FE002812D12868801901F072FE04463A
:103840000AE0204601F070FE002807D128682146D2
:10385000801901F099FE2468002CF2D128688019A3
:1038600001F058FE012807D072B62868BF22403008
:10387000C1791140C17162B670BD0000B000002076
:10388000E406000010B501F0A1FE01F0A1FE00F079
:103890003EFE012801D101F09CFE01F09BFE10BD0F
:1038A000FEB572B63F4D0823286801464030C27904
:1038B0001A43C27162B6002011276C46FF018200D4
:1038C0005218D219D26F52884300401CC0B2E25243
:1038D0000328F4D372B6C8190021866E816662B6D9
:1038E000F00702D0002001F099FEB00702D50120B8
:1038F00001F094FE700702D5022001F08FFE300720
:1039000002D5032001F08AFE002623E00D281AD2FA
:10391000211D254A8000125820469047002812D0C9
:1039200072B62868F7224030C1791140C17162B681
:1039300030E03A2807D21C49231D8000E8390A5894
:10394000194620469047029829684018C019C06F50
:103950002188018071006846415AB00002902A68AF
:103960008018C019C06F028892089200141802884B
:1039700008348A420ED0A27891070BD09107890FA4
:10398000012901D104460834A0788008C006E078F7
:10399000CFD5BBE7761CF6B2032EDBD301F040FE99
:1039A000FEBD0000B0000020A00F0510F8B52C4FA0
:1039B0003C68206E5C34401C002814D00025294847
:1039C0000023C07B00283ED00926F6062648002D9D
:1039D0001CD000210A460B464169521C994204D171
:1039E000002902D004E00125E9E7204B9A42F2D3F6
:1039F0002160006960603069A1680002090E000A58
:103A000009060143A16001F025FE1DE03169A268AD
:103A10000902090A150E08D0018BC90712D04169A5
:103A2000216000696060E37210E0881A00027D2363
:103A300000121B03984205DD100E00060843A0602B
:103A400001F008FEF8BD6360002DFBD003CC01F04F
:103A50000FFEFA2001F026FD39688862F8BD0000EB
:103A6000B00000202C050020000010488813000042
:103A7000FEB552480088582341075148490F026853
:103A8000052040021018426959435418A27825694C
:103A90005207520F216A0092022A01D0052A20D132
:103AA0002A0404D46279920701D1002919D0A66AA8
:103AB000444A2B0443D563799B0715D0676B778005
:103AC0000120C0038543256100F021FD012809D0B4
:103AD0001F217878014204D0218A890401D5001D74
:103AE0007870FEBDFF21F4E70029FAD01542F8D125
:103AF0000A7C006AD206D20E921C1718B8B2019046
:103B00007080204601F0F8FD0120C0038543256147
:103B100005110098052800D1AD0000F0F8FC01283F
:103B20000BD01F217878014204D02169294201D0AD
:103B3000001D787001987080FEBDFF21F2E770884B
:103B400001235B07C01863799C469B0704D0636B15
:103B5000834201D0012700E00027666B864202D035
:103B60002388834212D1002912D015420ED101239D
:103B700000290ED086420CD02488844209D00968DE
:103B8000002906D0154204D1012103E00023EFE70C
:103B90000023002162469206920F03D00022002FDC
:103BA00006D101E00122FAE70B43C5D0002AC3D0B9
:103BB0000178102211430170FEBD0000C0000020FA
:103BC000B0000020600600001FB50E480468AE3447
:103BD000E078010612D5A178C9070CD0800708D576
:103BE000042069460873684601F0C8FD022001F010
:103BF000F1FD0020E0704006400EE07001F012FE82
:103C00001FBD0000B0000020F0B58BB0002064495B
:103C10000290E3200A68C000141872B610464030C3
:103C2000C57902231D43C57162B625464035287A01
:103C3000C0077DD0052040021018002687694AE0A1
:103C400071017A5A002A44D0C919069109694A02B9
:103C50001FD48A0227D502210491069901230988DD
:103C60000905090D03911B2189014118C97E8907A6
:103C70000FD51121C901083040182322C06F02213D
:103C800001F0D2FD010004D0039A8A80049801F06B
:103C900029FE069800880090069801F037FE0098EB
:103CA00001F0B2FE15E0480713D50698008800051C
:103CB000000D01F0B7FE002805D106980088000528
:103CC000000D01F0D3FE069904200969814306988E
:103CD0000161761CF6B23248AC210068095CB14241
:103CE000AED802F067F820462430064601F012FCF8
:103CF000012802D0012002F027F92046183001F0F7
:103D000009FC012802D0002002F01EF93C342046B4
:103D100001F000FC01280FD002A9204602F012FA9F
:103D20000420029902F025FA0028F0D0204600E095
:103D300034E0029902F043FA287A00062ED5304684
:103D400001F0E8FB012829D1002002F04BFAA98BF1
:103D500023314909491CC9B2FDF7D3FD00281DD004
:103D60000F4D044628681121C90108304018422629
:103D700001233822C06F314601F056FD01000DD0FD
:103D800000228A80CC80304601F0ACFD3B212A68BD
:103D9000490151180A78802082430A700BB0F0BDA7
:103DA000B0000020F0B595B00027069772B65C4EC3
:103DB000042230684030C1791143C17162B602F00B
:103DC0002FFA00256BE00F21C9014018C16B28466E
:103DD000782250430C1860D0218A00295DD02046FB
:103DE00060301190C07BC00651D50805000D2146FA
:103DF0001E310090102212910DA8FFF7C6FA07A9F4
:103E0000204602F00FFA00282ED0009802F052FA55
:103E10000B900220059000980390032004901B2132
:103E2000306889014118497E0123890712D5112183
:103E3000C901083040181322C06F022101F0F4FCC0
:103E4000010007D0039A8A80049A8A71CF7105987D
:103E500001F048FD0B983A280CD01198EF21C07B57
:103E600008401199C87312E007A9009802F029FAD6
:103E70000B90EFE710220DA91298FFF786FA72B6A1
:103E80003068FB224030C1791140C17162B6207A9E
:103E9000002802D0204602F01BFA6D1CEDB23068FB
:103EA000AC21095CA9428ED81E4D3068401901F042
:103EB00031FB00282DD1306806A9401902F042F9E3
:103EC0000698808802F0CCFA0400EED0069881684B
:103ED000097B0529214604D002F0E6FAFF2803D029
:103EE00010E002F05BFB16E006988168097B03296D
:103EF0000AD06E21095D090706D500900194684635
:103F000002F054FB002806D030680699401902F0F0
:103F100056F915B0F0BD0121069802F049FBC4E73F
:103F2000B00000207C070000C9B202788A4203D0AA
:103F3000401C002AF9D100207047704780B5002846
:103F400001D100BF07A006490B68002B03D0222235
:103F50000021984701E002F049FB222002BD000049
:103F6000B4050020636F6E73747261696E742068AB
:103F7000616E646C65723A20626164206D65737372
:103F800061676500431C0178401C0942FBD1C01ADF
:103F900070477047C9B2521E05D30378401C8B424C
:103FA000F9D1401E70470020704730B401246405E9
:103FB0004D00EC420BD85D00EC4208D80C001C43CD
:103FC00064000443144304D2994200D1904230BCAF
:103FD0007047FCD08B42FAD18242F8E730B401241A
:103FE00064054D00EC420BD85D00EC4208D80C0093
:103FF0001C4364000443144304D28B4200D1824228
:1040000030BC7047FCD09942FAD19042F8E7704733
:10401000F4464A1805D200F00FF801D58017400881
:10402000604700F009F80121C907884200D908005B
:10403000404260474A1812D2400DC902084301218C
:10404000C9070843520D40210901521A521C06D4D7
:1040500052421F3201D4D0407047C0177047002031
:1040600070477047010042221201D21E004207D061
:1040700002D4521E0018FCD5C10A40051205891849
:10408000704700000100EED54042F446FFF7EBFF19
:104090000122D207114360478B4200D1824205D9E9
:1040A0008446100062468C4619006346DF184C189F
:1040B000640D7F0D3AD0661C760537D0E61B352E91
:1040C00034DCDB022B43DB0A0C0DC9022943C91285
:1040D000202E0DDB1700203E06D01F00F741F340D5
:1040E0005F400026012A7741C01871410DD217E0C8
:1040F0001700F741F2405740F3415A40B340F340B4
:104100005A400026801859410AD3A21C52050FD0EC
:10411000C207012F724117004008CB071843490816
:10412000641C24054208AF4170416141F0BC7047F6
:10413000641C21050020F9E76B4010E06B40ABE701
:10414000F742F3D1E943F1E72442EFD10020002107
:10415000ECE7F0B40125ED070F005F40EED40C0052
:10416000871A9C4105D2C01BA141D2196341694005
:104170006B40AE0ADF184C18F442E1D2640D7F0D9B
:10418000E2D0E61B362ED1DCDB022B43DB0AA44651
:104190000C0DC9022943C90A012E28DC04D1D60717
:1041A0005208DF073A435B08EF0A76429041994193
:1041B00014D039423BD1B61940414941761C3942AD
:1041C00004D1761C001849413942FAD0B9436746F8
:1041D000B74208D9A41B24052143A7E70042EAD12E
:1041E0003642E8D1A2E7E40AE10700209EE7202E4C
:1041F0000BDD203E1F00F340F7415F40012A002203
:1042000057417E42984191410BE01700F741F2403F
:104210005740F3415A40B340F3405A407E429041E8
:1042200099410A0303D2641EB6194041494100274F
:10423000641E24054208AE4178416141F0BC7047DC
:10424000F0B40E005E400125ED072E40B446AE0AE4
:10425000DF184C18F4423BD2F74241D2640D43D0F0
:104260007F0D38D0E41BC902DB0229432B43CF0A60
:10427000DB0A0600B61A9F4104D2641EB6197F41BC
:10428000B6185F416812800D24180018844222DAA3
:10429000E80C0021B6197F41B61A9F4102D2B61828
:1042A0005F413F1C40414941F4D3241C21DD2405DA
:1042B000B6197F41B61A9F4105D33743C607374326
:1042C0000026012F7041614166463143F0BC7047C2
:1042D000FCD1F74205D20020C14349054908F3E764
:1042E00004D00020C143F1E77F0DFAD000206146E1
:1042F000ECE72442FAD1401C61410F03F6D30020C1
:10430000E2E7F0B50E005E400125ED072E40B44611
:10431000AE0ADF184C18F44208D2F7420ED2640DF0
:1043200001D07F0D12D100206146F0BD05D1F742CA
:1043300001D87F0D05D10020C143F0BDFBD1640D34
:10434000F9D00020C143490549088FE0E419C902AA
:10435000DB0229432B43DB0A460DC00231438E4664
:1043600030B487B295B27D432E0CADB2140C7C43B1
:10437000A419260C240425439CB27C43A419190CCF
:104380007943270CC919A4B20F043C43090C000C53
:1043900097B247432E0CBE193543ADB2170C4743B5
:1043A000360CBF19A6B2BF193E043543240C3E0C8F
:1043B00036199FB24743BF19BCB23E0C89191F0C76
:1043C00047437F183E043443390C704680B297B29D
:1043D00047432E0CBE193543ADB2170C4743360C7C
:1043E000BF19A6B2BF193E043543240C3E0C361942
:1043F0009FB24743BF19BCB23E0C89191F0C4743FB
:104400007F183E043443390C77463F0C90B2784312
:104410002E0C80190604ADB22E43050CA0B22D1847
:10442000120C7A435019020C80B2240CA4189AB2D0
:104430007A43121914042043120C89181B0C7B4375
:10444000C91830BCEF0A394203D1B619404149417D
:10445000641E6F12BF0DE41B0BDBFF19BC4211DAA7
:10446000240500274208AE41784161416646314348
:10447000F0BD641C05D1401C6141CF0201D3490845
:10448000F4E750E75DE7124224D0994228D970B58D
:1044900000251B4202D00C00002109E00024012667
:1044A00049186441944200D3A41A7641F8D33100EC
:1044B000012601E0764109D2001864416D41A41A39
:1044C0009D41F7D2A4185D41B619F5D33000220002
:1044D0002B0070BD1B42D8D108B502F08DF808BD85
:1044E00001D19042D3D202000B000021002070477E
:1044F000A446521E08D303780C78401C491CA342E2
:10450000F7D0181B644670470020644670470020AF
:1045100070477047F3B581B0934A012101A802F0BA
:104520006CF8924C04222060432101A802F065F847
:1045300011272168FF01C91908670422432101A836
:1045400002F05BF821680422C9194867FF21843111
:1045500001A802F052F82168854DC9198867A97F22
:104560000C2201A80B3102F048F8052621687602DA
:1045700089198863A97F202201A802F03EF82168EA
:10458000102289198862A97F01A802F036F82168F3
:1045900028228919C862052101A802F02EF8216895
:1045A000302289194863052101A802F026F8216804
:1045B000FF22891908630132012101A802F01DF8C8
:1045C0002168582289190864A97F01A802F015F80A
:1045D0002168202289194861A97F01A802F00DF8FD
:1045E0002168782289198861A97F01A802F005F85D
:1045F0000F212268C9015118C8630722032101A8AD
:1046000001F0FBFF0F212268C9015118086428221C
:10461000012101A801F0F1FF0F212268C901511801
:104620008864AA8B012101A801F0E7FF0721226815
:1046300009025118C866298B282201A801F0DDFF64
:1046400007212268090251184866698B302201A8A7
:1046500001F0D3FF072122680902511888660C2255
:10466000012101A801F0C9FF21680C228919086104
:10467000012101A801F0C1FF2168282289190969D7
:104680008860284620300090417801A801F0B5FFED
:10469000216804228919096989688860009841782D
:1046A00001A8491C01F0A9FF216810228919096994
:1046B00089684860A97F01A801F09FFF2168022254
:1046C000C9194866A97F01A801F097FF2168022255
:1046D000C919C863A97F01A801F08FFF21680222D0
:1046E000C9190864A97F01A801F087FF2168022287
:1046F000C9194864A97F01A801F07FFF2168012240
:10470000C9198864A97F01A8491C01F076FF2168B6
:104710001022C91908660B2101A801F06EFF0721BC
:1047200022680902511848600422802101A801F082
:1047300064FF21688919C861029ADC204243012183
:1047400001A8443201F059FF216889190862029AD0
:10475000D8204243012101A82C3201F04EFF2168EC
:10476000891948620198FEBD580A0000B000002077
:104770000C05002070477047F0B5264805220368F5
:1047800052029818806B1321C901044659180C3441
:10479000CC6288620C340C630C344C630C348C6334
:1047A0000C34CC630C340C640C348C660C34CC6646
:1047B0000C340C6778304867002017499C1811E0CA
:1047C000A36A45015D19582343431F466669343780
:1047D000F5510C254543A66B843575192833666958
:1047E000401CF5508B7F8342EAD80A4B00201C689E
:1047F000A41807E0E56A0601AE1945010835A76966
:10480000401C7E518D7F8542F4D8C868196889188C
:104810004864F0BDB00000200C0500207047002067
:104820007047002070477047C02000060168802252
:104830000A4302600168802291430160704770471B
:104840003EB5174D15482968827F0846A0310A7386
:1048500000246030047644768476E122C276802299
:10486000027702224277302008704C7002AA01A918
:104870006846FEF705FD68460078A22201016846F9
:10488000007A891C00020143684600790003014355
:1048900028681152A03004713EBD00000C050020B4
:1048A000B000002070B501F0B3FE01F0CDFE01F0C4
:1048B0008DFF01F0BFFF01F0CDFF184C18492068B3
:1048C000184D4018811001202A68C0021018C166D6
:1048D000616889080167A1688908416701F0E6FFFE
:1048E0001D2029688001228B08180287628B42876D
:1048F000A28B4286628C82862046203002783B2042
:104900004001081882750021017002F009F802F0D8
:1049100011F802F049F802F055F870BD0C050020BE
:104920000000FCEFB000002010B5012818D80729BE
:1049300016D80C4A12681346203318775977800727
:10494000C906000E090E01430020074BA03204E007
:104950008401E418A172401CC0B2147B8442F7D8D1
:10496000002010BDB00000200001002070B5294DCE
:10497000274A28680021FF301B30FEF70CFD28680D
:10498000FF21F22211261154B6018219517291723F
:10499000D172214AF4210A505D231B01F822FF2124
:1049A000C018FEF7F8FC1D4B28687822FF21C018BC
:1049B000FEF7F1FC194B2868F8337822FF21C01864
:1049C000FEF7E9FC9B232868DB007822FF21C01852
:1049D000FEF7E1FC2868002481190C761321890177
:1049E00041180C751521890141180C741721890192
:1049F0004018047302F012F8296801230A46803235
:104A0000906788190475E0314B74D467847570BD64
:104A10002A030000B0000020905F01005C04000049
:104A2000F0B5444F0446386885B0783016460D46D8
:104A3000002C19D0062C11D0082C0CD0182C0AD020
:104A4000282C0BD02A2C09D02C2C0AD02E2C0BD0A1
:104A5000D02C42D043E0102D08D040E0022D05D0EC
:104A60003DE0012D02D03AE0062D38D10A4600196A
:104A70003146FEF78AFC2C2C28D13078002825D02E
:104A8000FFF745FD012824D01B201F304009401CA2
:104A900041004118012001F0CBFFFFF738FD01284C
:104AA00019D01B201F30400941004118224840788E
:104AB000401AC01EC1B2002001F0BAFF386840227F
:104AC000403001781143F92211400170002005B0F7
:104AD000F0BDFB20D9E7FB20E4E7012D04D0FFF770
:104AE00016FD012804D007E0107801F0ADFFEEE7D5
:104AF000D12C01D1082D01D01220E8E70222314645
:104B00006846FEF742FC0222B11C01A8FEF73DFCFC
:104B10000222311D02A8FEF738FC0222B11D03A8B3
:104B2000FEF733FC6846838902898188008801F09A
:104B30009BFFCCE7B00000202C050020F0B55FA063
:104B400099B000685E491590E3220868D200841885
:104B500005225202821892692546403514922A7A1B
:104B6000D20702D0622019B0F0BDAA8B01235B02EC
:104B70009A4201D9AB8303E0172A01D21722AA83F4
:104B8000149AA0301392067B0DE0761EF6B21398AD
:104B900071010F18B8680F90384620220021FEF7E7
:104BA000FAFB0F98B860002EEFD120460830E06085
:104BB0006460A06024600830139060612061FF226F
:104BC0000021083001F052FF2046FF22002124304E
:104BD00001F04CFF2046AA7F0021303001F046FF53
:104BE0002046FF2200213C3001F040FF00222A72C3
:104BF00010461721324B05E0149E4701BE19401C98
:104C00007180C0B21E68A036367B8642F4D8002080
:104C100028832F8C688C0026149008E02820E16CF3
:104C200070430918204600F02DFC761CB6B2BE4237
:104C3000F4D3002608E03020216D70430918139842
:104C400000F020FC761CB6B214988642F3D3012003
:104C500001F014FF0124684604701A49418023467C
:104C6000042269460CA801F015FF002822D16846ED
:104C7000018E8182144901830426068584752021D2
:104C800008A881720024C4720473072141738473DD
:104C900005A90DA801F0AEFF00280BD168460487D6
:104CA0004687818E15AB0EAA008E02F03FF90028D0
:104CB00000D158E700202872472054E70000FFFF8A
:104CC000B000002001180000052A0000FFB50C46C6
:104CD00078A103C995B001910090002108A8017343
:104CE0000321C90268464186012108A8734E017458
:104CF00035681746AE3502F04DF9002808D17049E5
:104D00003068401802F0DAF9A878002802D046206E
:104D100019B0F0BD0BA8159902F0DAF90028F7D107
:104D2000072010A90871012C05D0022C0AD0002CF4
:104D30000ED04220ECE708A8017B1020014308A810
:104D4000017305E011A90BA802F0D0F90028DFD10A
:104D500010A8027901230CA9284601F09BFE002827
:104D60007ED1022229461898FEF70FFB2988684653
:104D700081811521490201820784012686734E2113
:104D800008A881700024C4700671072141718671E2
:104D900003A902A801F02EFF002861D1022202A976
:104DA0001E98FEF7F2FA082F02D26846478502E005
:104DB00008206946488569460C850B4628880AAA5A
:104DC000098902F0B3F800286DD13E496846018296
:104DD0000227078408A8847103A902A801F00AFF2A
:104DE000002860D1022202A91F98FEF7CEFA684679
:104DF0000470694644704F850B4628880AAA0989C1
:104E000002F094F800284ED108A8007BC00723D0F8
:104E10002C496846C91C01820821018408A88770B2
:104E2000047103A902A801F0E5FE00283BD1FF218F
:104E30006846C1718171C1708170417001704471A7
:104E400004716946082048850B4628880AAA098902
:104E500002F06CF8002826D108A8007B800600E04C
:104E600021E022D52988684681811649A531018231
:104E70000684867308A88770C47004710721417185
:104E8000847103A902A801F0B5FE00280BD1694680
:104E90000E700C854E850B4628880AAA098902F0F7
:104EA00045F8002801D0472032E708A8007BA87009
:104EB00000202DE7626C75656E726721B0000020DE
:104EC000DE060000012A0000FFB5002099B0239AF9
:104ED0000B90129005461490064615901C46DB4830
:104EE0000B460068E321C900411803910021229F6D
:104EF000089109915188069111880A913B21490135
:104F000040180078C00706D00FA9184602F0F0F844
:104F100000280AD102E047201DB0F0BD10AA0F9969
:104F20001B9802F0FBF8002801D06020F4E71998E4
:104F3000002803D0600701D5012000E00020139075
:104F4000A007800F1C90109817902030C07801287F
:104F500040D11798BE4B01899942F9D1179806990B
:104F600004680A98228C4118914233D82046203098
:104F700016908078012816D0E08B049017988069ED
:104F800000788006800F7DD0039840301890007A1A
:104F9000800777D51C980028F5D0AD4F0F99FF37C3
:104FA0002031206814E0BA4214D3B942DDD8049706
:104FB000E4E70389A64A934203D12322125C012A23
:104FC00008D0BB4203D12322125C012A03D000681F
:104FD0008842EED134E105900028FBD09B480521A2
:104FE00002684902511889690027009162E078013E
:104FF00000990390085A01055AD01999002901D047
:10500000884255D105997A008B69511C595C9A5C8C
:105010000902891889B20D91890749D002220599A0
:1050200002F08BF8002804D01998002840D06520A1
:1050300072E7002008A9C8551C98C00718D0179817
:1050400080690078C00613D50D98C00710D00120E4
:10505000C8550543009A039880184088159A9042D5
:1050600006D91590009A0398105A0005000D149067
:105070001C9880071CD5179880690078800617D582
:105080000D9800E084E0800712D50220CA5D054338
:105090000243CA55009903984018408815998842E0
:1050A00006D9159000990398085A0005000D149030
:1050B0007F1CFFB265480068A030037BBB4296D8D6
:1050C000002D65D01898007A00065FD45F4801680B
:1050D000052040020818816900201BE042018E5A19
:1050E000360515D0AE070BD556183669B7070DD45F
:1050F00008AF3F5CBF0703D5360701D546200BE755
:10510000EE0705D05218127CD20701D0432003E7E6
:10511000401CC0B28342E1D81598C01E86B20498E4
:10512000864200D90646A8070FD5202200201499F0
:1051300002F02CF8129000287DD0F01C82B20021E1
:10514000129802F045F8002811D1E80720D020225B
:105150000020149902F01AF80B90002807D0F01CD8
:1051600082B200210B9802F033F8002810D0802082
:1051700001F084FC1298002802D0002101F018FAF6
:105180000B98002802D0002101F012FA6420C3E637
:10519000A1690A98069A08182499FEF7F6F8169855
:1051A0008078012801D10498E083002D46D0274B58
:1051B00005201968400208188169002008AA0CE03F
:1051C0004301CF5A3F0506D05F18BC463B69175CC8
:1051D0003B4367463B61401CC0B21C4B1B68A0337D
:1051E0001B7B8342ECD8A8070DD512980090F01CC9
:1051F00082B221461C310220A36901F0F0FF022097
:10520000129902F00BF8E80718D00B980090F61CE2
:105210002146B2B21C310120A36901F0E0FF1398CE
:10522000002805D00B988021C07C08430B99C874D6
:1052300001200B9900E005E001F0F0FF00206BE693
:10524000422069E6802001F019FC9FE7B0000020B1
:105250000328000070B586B014461D460A46034672
:105260006946881C0A9E01F0FFFF002804D1012C2A
:1052700004D0022C02D0422006B070BD23462A463C
:105280006946304601F006FCF6E7F0B587B01C46EB
:105290000B46054600A9023101A80C9F0D9E01F0A6
:1052A000E3FF00280ED16846058084828775C675A5
:1052B0000E9901760F994176109981766946119879
:1052C00001F098FC07B0F0BDF0B5144A144B126819
:1052D000D3181A6C154608321F2901D93020F0BDA9
:1052E00000249E6B1F6C365D3E55641CE4B2082C96
:1052F000F7D3002405E00678641C1670401CE4B265
:10530000521C8C42F7D3186C891D4170986B9D63B9
:1053100018648033186A45800020F0BDB00000207A
:1053200008090000F0B5054600200F46079E059CC1
:10533000174309D0202905D30127BF03BA4201D85A
:10534000914201D94220F0BD194621430AD09C4226
:10535000F8D309498C4203D00849A41F8C42F1D2EA
:10536000062BEFD3002D03D0022D01D0032DE9D160
:10537000032EE7D8F0BD0000FFFF00007B0C00000B
:10538000F0B58DB00C4616A9E0C90021089109912D
:105390000A910B911599049105A9E0C112A962C95E
:1053A000009301911346014603960295224601207F
:1053B00001F06EFF0DB0F0BD10B50A4A830B126804
:1053C0008004526A800C140A60435A438009101802
:1053D00000228A5E821A10464030C009C3019A1A20
:1053E0000A8010BDB000002010B5030002F00AF8DA
:1053F0003A332D2D2D1E2130332A2A2A2A2A2A2AF1
:105400002A2A242424242424242424242424242450
:10541000242424242424242424242424242424244C
:1054200024242427272727272727273301F0F7FFBE
:1054300010BD01F0F5FF10BD02F016F810BD02F02E
:1054400021F810BD02F04EF810BD02F087F810BD33
:1054500002F0BEF810BD3A38C0B20428FAD202F009
:10546000B8F810BD00B50B4602F0B4F8002808D01B
:1054700003CB083B086003CB41600020083B186069
:10548000586000BD086042684A604268116041602F
:10549000704708B500216A4611806946FFF78CFF06
:1054A00008BD70470649C20B09684004096A400CF0
:1054B000CB0958435143000A08182030800970472F
:1054C000B000002030B5EFF3108172B60922D20689
:1054D0001269FF25821A120214120C4A91351368C0
:1054E000AC4208DC0122120690431A464032D479BD
:1054F000DF252C40D471C2010724D20924021B19D4
:105500001A61034A906081F3108830BDB00000201A
:10551000400000480068002801D0002070470120AA
:10552000704700687047704710B50446002020821D
:10553000A074A168A16161612060204602F056F864
:10554000452801D0412010BDA088032102F076F843
:10555000044602F0B9F8002812D072B609480122B8
:1055600001684F20400109184879A2401043487152
:1055700062B6002002F0C2F8002801D002F092F9D1
:10558000002010BDB000002010B50446006888421D
:1055900009D10268226000220260206800280BD135
:1055A000626009E0104602688A42FBD10A68026024
:1055B00062688A4200D16060084602F091FCE17A9C
:1055C000081AE072A07A401EA07210BD0020704739
:1055D00070477047F8B5104E30682030C57D002DFB
:1055E00019D0002405277F0210E0E9070BD0C0196D
:1055F00041695820604308184030417D204602F040
:1056000075FC002807D06D08641CE4B23068AC213A
:10561000095CA142E9D8F8BDB0000020704770478E
:105620003EB50B4801AA0468694602A8683402F036
:10563000AFFC00280BD06846007AE1880122824046
:10564000114204D069460978019AFCF7E2FC3EBD9C
:10565000B0000020044900200861044801210068CE
:105660006030C1717047000000001048B000002099
:1056700070B51A4A1A4CD37B2268002B11D01A4EEF
:10568000184B8009CDB2584375430B0A2D0A73435A
:1056900010355B19154D80305B09000A6943090C10
:1056A00004E0192312481B04FF21E931114D118632
:1056B00069805362106209482038008EFFF7F2FEBD
:1056C000E914884200D3481E40052168000E2031AD
:1056D00008752988090700D4687270BD2C05002060
:1056E000B000002053070000F6BC0800550500007C
:1056F000C2F52800C0000020F8B50C46CA88098A07
:105700004030521A8088102695B2A84205D205462C
:10571000E07C4006400EE07403E02068002800D1E1
:105720000026002904D1207B800701D5022000E05B
:105730000120CF060643FF0EE81982B20E48A16988
:105740000368052040021818006A001D02F040FCA2
:1057500060610948A5740168052040020818016AC3
:10576000B81C0E5404480168052040020818006A5D
:10577000FF1CC555F8BD0000B000002070B5134EE9
:10578000134A31688D182C681DE0017B227B914201
:1057900018D121462846FFF765FE284621460830E5
:1057A000FFF770FE207B3A2803D220352878401E70
:1057B000287072B63068DF224030C1791140C17163
:1057C00062B670BD2468AC42DFD170BDB00000206D
:1057D000F406000010B50446C1061148006803D560
:1057E0001522BF210C4006E01B2189014118497E8A
:1057F000C90710D012222107890E08181121C901EA
:105800004018C06F0023214600F00EF8010004D0BC
:10581000204600F067F8002010BD072010BD0000F2
:10582000B000002070470000FFB5044600262C4F52
:1058300083B09C460D46080616D572B601AB6A4683
:105840006146204602F0E8FB00280BD068468188BC
:10585000009882789208920082700180618001260F
:1058600062B615E062B621E001AB6A4661462046A9
:1058700002F0D2FB002819D0680609D46846818856
:1058800000988278920892008270018061800126DF
:105890000098AA00817840238907890F1A40114394
:1058A00081700599C170002E0ED115E00020009086
:1058B00072B6A8060FD411203968C0010818816E8D
:1058C00008221143816662B672B63868F72240300A
:1058D000C1791140C17162B6009807B0F0BD0000F7
:1058E000B00000200A46400608D5D0783A280AD2EF
:1058F000111D054B80001B581046184790788008F2
:105900008000801C88707047B80E0510F0B5044602
:105910003C48E3210068C9004518218A85B0890404
:105920001AD5022104911B2189014118497F412682
:1059300027880123C9070FD01121C9010830401859
:105940003122C06F0221FFF76FFF010004D08F806A
:105950008E710498FFF7C6FF29462088012218316E
:1059600002F090FB294620880122303102F08AFBA8
:10597000294620880122243102F084FB2946208810
:1059800000223C3102F07EFB20880005000D02F071
:1059900093FB85002946113168460173FFF7EEFE3F
:1059A0002946123168460173FFF7E8FE2946133194
:1059B00068460173FFF7E2FE684614350573FFF78A
:1059C000DDFE208802F094FB208801050D48090DBA
:1059D0000268052040021018828F914201D10021F7
:1059E0008187E069002802D0012100F0E1FD20223A
:1059F00000212046A568FDF7CEFC1720A560608039
:105A000005B0F0BDB000002010B5412400F028FD25
:105A1000002805D06030C17B80221143C17300246F
:105A2000204610BD10B594B0044600F019FD0028C2
:105A30001AD0C17B6A46C907C90F683002F00EFC54
:105A400000280DD0204600F00BFD00280CD0017A74
:105A5000F12907D1007BC10704D0800702D50020BF
:105A600014B010BD5E20FBE74020F9E7F1B5FFB0B0
:105A70008BB00124600205900027CC48079701688D
:105A8000E320C000081803908A98C74D0005000D58
:105A90000AAA05A902F044FC0690002872D1042647
:105AA0000AA805994218203AD27F0B2A23D0002653
:105AB000002004900AA88119022201A80291FDF792
:105AC00064FC6846818809AB08AA039802F046FC8A
:105AD000012817D002287DD068468088854200D3EF
